:020000040800F2
:1000000000930020A1010008C17F0008ED570008FF
:10001000BD7F0008FB1D0008F596000800000000E9
:1000200000000000000000000000000057860008EB
:100030001D4B00080000000045820008858700086D
:10004000BB010008BB010008BB010008BB010008A0
:10005000BB010008BB010008BB010008BB01000890
:10006000BB010008BB010008814B0008BB01000870
:10007000BB010008BB010008BB010008BB01000870
:10008000BB010008BB010008BB010008BB01000860
:10009000E11E0008BB010008BB010008094C000874
:1000A000F1870008BB01000845880008BB01000873
:1000B000BD890008BB010008BB010008BB010008A6
:1000C000BB010008BB010008BB010008BB01000820
:1000D000BB010008BB010008BB01000855900008E7
:1000E000BB010008BB010008BB010008BB01000800
:1000F000758B0008658A0008BB010008BB01000879
:10010000BB010008BB010008BB010008BB010008DF
:10011000BB010008BB010008D5890008318A00082E
:10012000BB010008BB010008ED450008BB01000849
:10013000BB010008BB010008BB010008BB010008AF
:10014000BB010008DD1F0008BB010008BB0100085F
:10015000BB010008BB010008BB010008ED900008CE
:10016000BB010008BB010008BB010008BB0100087F
:10017000BB010008BB010008BB010008BB0100086F
:10018000BB010008BB010008DFF810D001F0D6F871
:1001900000480047A5C10008AFF30080009300208D
:1001A0000648804706480047FEE7FEE7FEE7FEE711
:1001B000FEE7FEE7FEE7FEE7FEE7FEE789870008C9
:1001C000890100089FED1A1AF5EE000A40EE010AB7
:1001D000BDEEE00AF5EEC00A10EE100AF1EE10FADC
:1001E00038BF401E00EE100A1349F7EE001AB8EEB1
:1001F000C00A30EEC00ADFED0F0A20EE200AFCEE46
:10020000C00A10EE900AC0F3080000EE900A01EB5D
:100210008000F8EE600A90ED011A70EE600A90ED31
:10022000000A71EEE01A21EE800A00EE810A7047A2
:1002300083F9223E0000004448C80008DFED190A97
:10024000B5EEC00A60EE200ABDEEE01A11EE100A0B
:10025000F1EE10FA38BF401E00EE100A1349F7EE17
:10026000001AB8EEC00A30EEC00ADFED0F0A60EEE9
:10027000200ABCEEE00A10EE100AC0F3080000EEFF
:10028000100A01EB8000B8EE400A90ED011A70EE02
:10029000C00A90ED000A71EEE01A21EE800A00EE2D
:1002A000810A704783F9223E0000004448C80008D4
:1002B00070B405880E884468D1F804C05368B5420C
:1002C00008D140884988884201BF11888D425188F1
:1002D000884203D070BC6FF00200704705FB00F14C
:1002E000880827D094ED001ADCED000A94ED010A8D
:1002F000DCED011A31EE201AD4ED020A70EE211A5B
:100300009CED020A83ED001AC3ED011A94ED031A65
:10031000DCED031A30EE800A401E71EE210A83EDF7
:10032000020A04F11004C3ED030A03F110030CF1F7
:10033000100CD7D111F0030030D0B0F1004F30D203
:1003400000282BDD211F1B1FACF1040210F0010F50
:100350000AD091ED010AD2ED010A091D121D30EEFD
:10036000200A83ED010A1B1D400817D091ED010AF8
:10037000D2ED010A401E30EE200A83ED010A91ED14
:10038000020AD2ED020A01F1080102F1080230EE80
:10039000200A83ED020A03F10803E7D170BC0020B4
:1003A0007047B4EC010A401EFCEC010A30EE200A52
:1003B000A3EC010AF5D1F1E7018042804360704768
:1003C0002DE9F34F84B0049840680090486801908C
:1003D0000498B0F800E04588DFEDFE0A00200290A6
:1003E000B0EE600AAE4506D108884988884204BF4D
:1003F0007146864504D06FF0020006B0BDE8F08F6C
:1004000001985FEA010C18BFB7EE001A3DD000BF9B
:10041000BEEB0C0117D0B1F1004F80F01F82002914
:1004200011DD021F11F0010F1CBFC2ED010A121DE8
:100430004B1006D0C2ED010AC2ED020A08325B1E63
:10044000F8D100EB8100BCF10102A0EC011A19D037
:10045000B2F1004F80F00882002A13DD031F12F072
:10046000010F1CBFC3ED010A1B1D511008D000BFB6
:10047000C3ED010AC3ED020A491E03F10803F7D1D7
:1004800000EB8200BCF1010CC2D14FF000080395D3
:10049000002D14BFB0EE602A002000F0BF8100BF25
:1004A000009908FB05F001EB800B0199DBED002AB8
:1004B00001EB80000346F0EE421AC64552D9AEEB7E
:1004C0000802ABEB850112F0010F17D001EB85019B
:1004D00091ED000AB5EEC00AF1EE10FA07DDB4EEB8
:1004E000E10AF1EE10FA09DDF0EE401A06E0B1EE95
:1004F000400AF4EEC01AF1EE10FAF5D3521031D0E2
:1005000001EB850C9CED000AB5EEC00AF1EE10FA85
:1005100005DDB4EEE10AF1EE10FA09DD06E0B1EE18
:10052000400AF4EEC01AF1EE10FA01D2F0EE401AD1
:1005300001EBC50191ED000AB5EEC00AF1EE10FA2B
:1005400005DDB4EEE10AF1EE10FA09DD06E0B1EEE8
:10055000400AF4EEC01AF1EE10FA01D2F0EE401AA1
:10056000521ECDD1F5EEC01AF1EE10FA00F07381F3
:10057000F5EEC02A0126F1EE10FA0099D4BFB1EED3
:10058000620AB0EE620AB4EE610AF1EE10FA1CBF24
:10059000AEEB0802B2F1010C47D005FB08F201EB0B
:1005A000820292ED001A00BFB0EE410A05FB06F48C
:1005B000B5EEC00A00EB8404F1EE10FACCBFF0EE09
:1005C000400AF1EE400AF4EE610AF1EE10FA28D189
:1005D000B5EB080C11D0BCF1004F7DD2BCF1000F7F
:1005E0000BDD00BF92ED000AD1ED000ABCF1010C59
:1005F000E2EC010AA1EC010AF4D129000ED0B1F11C
:10060000004F6AD2002909DD94ED000AD0ED000AFE
:10061000491EE4EC010AA0EC010AF5D10120029088
:100620000BE0761CBCF1010CBED10298012804D06D
:10063000F5EEC02AF1EE10FA7ED09BED000AB5EB84
:1006400008009A465946064622D0B0F1004F74D2AF
:1006500000281DDD091F10F0010F06D0F0EE400A42
:1006600080EEA01A81ED011A091D401010D000BFC4
:10067000D1ED010A401E80EE801A81ED011A91ED44
:10068000021AC1EE000AC1ED020A01F10801EFD120
:10069000280026D0B0F1004F7ED2002821DDAAF13B
:1006A000040110F0010F06D0D1ED010A80EE801A8E
:1006B00081ED011A091D401013D000BFD1ED010AD0
:1006C000401E80EE801A81ED011AD1ED020A80EE03
:1006D000801A81ED021A01E0CBE0D6E001F10801B9
:1006E000ECD1DDE900124FF000095FEA0E0773D08C
:1006F000C14504BF01EB860102EB850274D091ED88
:10070000000ADC465046330035D01C46B6F1004F97
:100710007ED2002C2FDD0B1FABF1040C16F0010F65
:100720000FD0F0EE400ADCED011AB0EE601A00EED8
:10073000E11A83ED011A01E08DE0B1E01B1D0CF11F
:10074000040C741015D000BFD3ED010A9CED011A02
:1007500040EE410AC3ED010AD3ED020A9CED021AF4
:100760000CF1080C40EE410AC3ED020A0833641E86
:10077000EAD101EB86012B0036D0B3F1004F72D2E3
:10078000002B31DDA2F1040CAAF1040013F0010FDB
:100790000CD0DCED010A00E08BE090ED011A001DA9
:1007A00040EE410ACCED010A0CF1040C5C1019D0AA
:1007B000DCED010A90ED011A40EE410ACCED010A90
:1007C000DCED020A90ED021A083040EE410ACCED51
:1007D000020A03E0000000000DE005E0641E0CF1D9
:1007E000080CE5D102EB830201EB88017F1E09F1C1
:1007F00001097FF47DAF009808F10108001D009009
:100800000398401E03907FF44BAE0299012900E04B
:1008100058E004BF06B0BDE8F08F00BFB5EEC00AD7
:10082000F1EE10FA7FF4E9AD04990EFB05F3002B0D
:100830004A684FF000010BD902EB810C9CED000AD5
:10084000B5EEC00AF1EE10FA02D1491C8B42F3D882
:100850008B427FF4D2AD6FF00400CEE5E0EC010AEC
:10086000491EFBD1EFE538E0E0EC010A521EFBD156
:1008700008E692ED000AD1ED000ABCF1010CE2ECB1
:10088000010AA1EC010AF4D1B7E694ED000AD0ED1B
:10089000000A491EE4EC010AA0EC010AF5D1BDE60C
:1008A000D1ED000A401E80EE801AA1EC011AF7D1AA
:1008B000EEE6D3ED000A401E80EE801AA3EC011A8A
:1008C000F7D10EE7BCEC011AD1ED000A5B1E40EE39
:1008D000410AE1EC010AF5D14DE7B0EC011AD2ED85
:1008E000000A5B1E40EE410AE2EC010AF5D17BE70B
:1008F0002DE9F04F82B04668536801930588478818
:100900004B88002000900888874201BFB2F800C0E1
:100910006545528893421EBF6FF0020002B0BDE8E9
:10092000F08F9FED412A4FEA970EC7F3400B00BFAF
:10093000DDE9000202EB800A4A6898464FF00009A0
:10094000B0EE420AB4465FEA0E0025D092ED001ADE
:10095000DCED001A02EB8302DCED010A01EE810AF4
:1009600092ED001A02EB8302401ED2ED001A02EB58
:10097000830200EE810A9CED021ADCED030A0004FA
:100980000CF1100C000C01EE210A92ED001A02EBA2
:10099000830200EE810AD9D117F0030026D0ACF112
:1009A0000404A2EB830210F0010F08D002EB8302D3
:1009B000D4ED010A92ED001A241D00EE810A5FEACF
:1009C0000B0013D002EB830CD4ED010A9CED001A4E
:1009D00002EBC302401E00EE810AD4ED020A92ED42
:1009E000001A04F1080400EE810AEBD109F10100BC
:1009F000AAEC010A1FFA80F9486800EB8902A8F105
:100A000001001FFA80F8B8F1000F99D1009806EBA9
:100A10008706184480B20090681E05042D0C87D10B
:100A200002B00020BDE8F08F0000000070B405881F
:100A30000E884468D1F804C05368B54208D1408894
:100A40004988884201BF11888D425188884203D06D
:100A500070BC6FF00200704705FB00F1880827D0DA
:100A600094ED001ADCED000A94ED010ADCED011AA8
:100A700031EE601AD4ED020A70EE611A9CED020AA2
:100A800083ED001AC3ED011A94ED031ADCED031A8D
:100A900030EEC00A401E71EE610A83ED020A04F1D5
:100AA0001004C3ED030A03F110030CF1100CD7D1AD
:100AB00011F0030030D0B0F1004F30D200282BDD10
:100AC000211F1B1FACF1040210F0010F0AD091EDA1
:100AD000010AD2ED010A091D121D30EE600A83EDF4
:100AE000010A1B1D400817D091ED010AD2ED010A41
:100AF000401E30EE600A83ED010A91ED020AD2ED4C
:100B0000020A01F1080102F1080230EE600A83EDE9
:100B1000020A03F10803E7D170BC00207047B4EC6F
:100B2000010A401EFCEC010A30EE600AA3EC010A47
:100B3000F5D1F1E72DE9F04F02884768B0F802805F
:100B40004888D1F8049082B04FF0000A16468242DD
:100B500007BF098888456FF0020002B018BFBDE8E2
:100B6000F08F4FEA980B02EB42000190C8F340006F
:100B7000CDF8000009EB8A01BBF1000F33D00198DA
:100B800001EB820C01EB80043B46E64601EBC2051B
:100B90004FEA0B0093ED000A401E81ED000A93ED31
:100BA000010A01EB02118CED000A93ED020A0CEB35
:100BB000021C85ED000A93ED030A05EB021584ED96
:100BC000000A04EB021403F11003E3D10EEB8200E0
:100BD00000EB820000EB8201ABF10100504307EB18
:100BE0000B1701EB001118F0030C21D03B1FA1EBF8
:100BF00082011CF0010F06D093ED010A01EB820186
:100C00001B1D81ED000A009880B100BF93ED010A21
:100C100001EB820401EBC20184ED000A93ED020AAC
:100C2000401E81ED000A03F10803EFD107EB8C07AA
:100C30000AF101001FFA80FA701E0604360C99D1E1
:100C400002B00020BDE8F08F2DE9F0410024061B22
:100C5000254671F1000605DA01240027D0EB0700D4
:100C600067EB0101161E73F1000605DA0027D2EBCF
:100C70000702012567EB030300F0CAF986460E461A
:100C800017469C46AC4204D00025D0EB050E65EB20
:100C9000010624B10020D2EB000760EB030C704684
:100CA00031463A466346BDE8F08140EA01039B07BE
:100CB00003D009E008C9121F08C0042AFAD203E0D1
:100CC00011F8013B00F8013B521EF9D27047D2B235
:100CD00001E000F8012B491EFBD270470022F6E725
:100CE00010B513460A4604461946FFF7F0FF2046A2
:100CF00010BD421C10F8011B0029FBD1801A70475F
:100D0000034611F8012B00F8012B002AF9D11846EF
:100D100070472DE9FE4F804681EA0300C00F0C4664
:100D2000009021F0004123F00045B8EB0200A941FA
:100D300005D24046214690461C460B46024623F00B
:100D40000040104347D0270DC7F30A00C3F30A51F0
:100D50000290401A019040286BDAC3F3130040F46C
:100D6000801B0098924620B10023D2EB030A63EB6C
:100D70000B0B01985946C0F14002504600F079F93A
:100D800006460D4650465946019A00F081F910EB8F
:100D900008006141002487EA115284EAE7731A438C
:100DA00040D0009A62B3019A012A4FEA075215DC3B
:100DB000001B61EB02014FF0004202EA0752CDE94D
:100DC0000042001C41F5801132462B4600F0E1F94B
:100DD00003B0BDE8F08F40462146F9E7001B61EB08
:100DE0000201001C41F5801300185B412018A2F598
:100DF000001747EB030140EAD570B6196D4111E0C9
:100E00006D084FEA360645EAC0754FEA0752001BE7
:100E100061EB0201001C41F5801149084FEA3000E6
:100E20000019514132462B4603B0BDE8F04F00F0A7
:100E3000A1B90098012240000023D0EB020263EB2D
:100E4000E073009821464FEAE074B8EB000061EBD4
:100E50000401E9E783F000435BE781F0004158E7D4
:100E60002DE9FE4F81EA030404F0004421F0004123
:100E700000944FF0000B23F0004350EA01045ED0D1
:100E800052EA03045BD0C3F30A54C1F30A552C445D
:100E9000A4F2F3340194A0FB0254C1F3130141F412
:100EA0008011C3F3130343F4801301FB024400FBDE
:100EB000034E840A970A44EA815447EA8357A4FB05
:100EC000076802958D0A05FB07854FEA932C04FB02
:100ED0000C542705029D4FEA065847EA1637B5EB32
:100EE00008056EEB070C870E920E47EA811742EA5F
:100EF0008312A7FB0201B6EB0B0164EB00042B0D80
:100F000043EA0C335E1844EB1C50DA465146E7FBCB
:100F10000201C5F313044FEA0B3343EA14534FEABB
:100F20000432019C43EA0603A4F10C040294009CE1
:100F3000CDE900B400F02DF903B0BDE8F08F00203A
:100F40000146F9E7F0B4CA17CB0F50405140C6181C
:100F500041F100054FEAC372314628004FF0960375
:100F600003D0B623F0BC00F0AEB830460021F9E75C
:100F700010B500F0004420F00040C20DC0F3160090
:100F800040F400007F2A02DA0020014610BD002153
:100F9000962A03DCC2F19602D04002E0963A00F0B5
:100FA00068F8002CF2D00023D0EB030063EB0101C2
:100FB00010BD00F0004230F000400AD0C10D01F534
:100FC0006071C0F3160042EA0151C20840071143A4
:100FD000704700200146704701F0004330B421F013
:100FE000004150EA010206D00A0DA2F56072C1F379
:100FF0001301002A02DC30BC00207047440F44EA91
:10100000C104C100E01830BC00EBC25000F052B87F
:101010002DE9F05F0546002092469B46884606462D
:10102000814640241BE0284641464746224600F0C0
:1010300097F953465A46C01A914110D311461846A3
:10104000224600F016F82D1A67EB01084F4622469B
:101050000120002100F00DF817EB00094E41201E81
:10106000A4F10104DFDC484631462A464346BDE888
:10107000F09F202A04DB203A00FA02F1002070479A
:101080009140C2F1200320FA03F3194390407047C6
:10109000202A06DBCB17203A41FA02F043EAE0733C
:1010A00006E041FA02F3D040C2F120029140084329
:1010B000194670470029A8BF7047401C490008BF67
:1010C00020F00100704710B4B0FA80FC00FA0CF078
:1010D00050EA010404BF10BC704749B1CCF12004B0
:1010E00021FA04F411FA0CF118BF0121214308433D
:1010F000A3EB0C01CB1D4FEA00614FEA102042BF69
:10110000002010BC704700EBC35010440029A4BF5E
:1011100010BC7047401C490008BF20F0010010BC03
:101120007047F0B400F0004221F0004120F0004090
:10113000CE0DC30DC1F3160141F40001C0F316003A
:101140004C42154640F40000761E09E010EB4400C6
:1011500002D582F0004240428842F7D840005B1E30
:10116000B342F9DA18B1F0BC0021FFF7ACBF284652
:10117000F0BC704710B5141E73F1000408DA401C6F
:1011800041F1000192185B411A4301D120F00100A6
:1011900010BD2DE9F04D92469B4611B1B1FA81F296
:1011A00002E0B0FA80F220329046FFF762FF044678
:1011B0000F4640EA0A0041EA0B0153465A460843EB
:1011C00013D0114653EA010019D0C8F1400250462D
:1011D00000F0C6F805460E46504659464246FFF70F
:1011E00048FF084305D0012004E020463946BDE809
:1011F000F08D0020054346EAE0762C4337430A98F9
:101200006305E40AA0EB08000022FD0A44EA475403
:101210000A3002D500200146E9E7010510196941AD
:10122000DDE9084500196941BDE8F04DA2E72DE967
:10123000F04D81EA030404F0004B21F00045144610
:101240004FF0000A23F0004150EA050220D054EA92
:1012500001021DD0C5F30A570246C5F31303C1F3BB
:101260001300C1F30A5640F4801543F48013A7EB32
:101270000608101BD64608F2FD3873EB050002D3B2
:1012800008F1010801E092185B41B8F1000F03DAA0
:1012900000200146BDE8F08D00204FF48011064685
:1012A00084460EE0171B73EB050705D3121B63EB97
:1012B000050306434CEA010C49084FEA3000921836
:1012C0005B4150EA0107EDD152EA030012D082EAF5
:1012D000040083EA0501084305D0101BAB4106D288
:1012E0000122002306E000224FF0004302E06FF0ED
:1012F000010253101AEB06004CEB085110EB0A00E8
:1013000041EB0B01BDE8F04DFFF734BF30B5041ED3
:1013100071F1000404DB4FF00044404264EB010132
:10132000141E73F1000405DB1C464FF000435242CB
:1013300063EB04038B4208BF824230BD064C074D6D
:1013400006E0E06840F0010394E807009847103495
:10135000AC42F6D3FEF71CFF10D1000830D10008D4
:10136000202A04DB203A21FA02F00021704721FAFA
:1013700002F3D040C2F12002914008431946704761
:1013800070B58C1810F8015B15F0070301D110F847
:10139000013B2A1106D110F8012B03E010F8016B74
:1013A00001F8016B5B1EF9D12B0705D40023521EF7
:1013B0000DD401F8013BFAE710F8013BCB1A921C5F
:1013C00003E013F8015B01F8015B521EF9D5A1425D
:1013D000D8D3002070BD00001FB50121880406F09D
:1013E00053FF1D4807F006FC0020ADF80C00ADF8D7
:1013F000060040F2F310029040F24F10ADF80400E6
:1014000000208DF80E0001A9134807F05BFC0121B4
:10141000114807F0C3FB012211460F4807F0E1FB1A
:101420004FF4A06006F00AFE1A208DF8000001209B
:101430008DF8030002208DF8010001208DF80200D4
:10144000684606F0BFFD00F059F805F08BFB01215E
:10145000014807F0A9FB1FBD0048014010B500BFBF
:101460008021114807F0CBF80128F9D000BF4FF0D8
:10147000C0510E4803F066F90028F8D04FF0C05173
:101480000A4803F007F900BF8021074807F0B7F8C2
:101490000128F9D00021054803F030F90021034864
:1014A000183803F02BF910BD003001405864024099
:1014B0000146C1EBC10202EB42024FF0E0235A6148
:1014C00000229A611A46126942F001021A6100BFB5
:1014D0004FF0E022106900F001021AB100F48032EE
:1014E000002AF5D04FF0E022126922F001024FF0FD
:1014F000E0231A6100229A617047000000B599B09C
:101500000121084606F0A0FE0121022006F09CFE03
:101510000121042006F098FE0121080306F0B4FE24
:101520000121880506F090FE0121880306F0ACFE3B
:1015300001208DF8600000208DF8620001208DF8F8
:1015400063001020179003208DF8610017A9C3488D
:1015500004F034F80120179017A9C14804F02EF8C0
:1015600002208DF860001820179017A9BC4804F0DD
:1015700025F88020179017A9B84804F01FF800201C
:101580008DF860003020179017A9B64804F016F8BF
:1015900005220721B14804F059F805220321B0487B
:1015A00004F054F805220421AD4804F04FF84FF43C
:1015B0008270ADF84A000020ADF84800ADF84C004C
:1015C000ADF856001020ADF854000220ADF84E00E2
:1015D0000120ADF850004002ADF852000A20ADF8ED
:1015E000580012A9A04807F018F84FF0C060039007
:1015F00000200C9040200690082007904FF44030C7
:101600000D9099480C300490002011900A90089099
:1016100096480590002010900B904FF48060099040
:1016200000200E9008200F9003A9914803F0FCF8C9
:10163000002006908F48059003A98D48183803F0C4
:10164000F3F801220221884806F0D0FF012211465A
:10165000854806F0CBFF01221021804804F027F8CE
:10166000012211467E4804F022F80421022006F0EF
:10167000F3FF0521022006F0EFFF1020019001206A
:101680008DF80A0000208DF808000C208DF8090064
:1016900001A803F00FFB2020019001A803F00AFB32
:1016A0004FF4A06006F0CAFC0A208DF8000001206B
:1016B0008DF8030002208DF8010001208DF8020052
:1016C000684606F07FFC17208DF8000002208DF898
:1016D000010001208DF80200684606F073FC01222B
:1016E00010216348183803F081F83A208DF8000083
:1016F00001208DF803008DF801008DF80200684686
:1017000006F060FC00215A4802F0F8FF002158481A
:10171000183802F0F3FF0121534806F05BFF94E014
:10172000002000F0B1F91E287ED1002000F03CFA24
:101730000F287ED101208DF80300684606F042FC98
:10174000B6217E2000F0F2F94FF47A70FFF7B0FE78
:10175000B621142000F066FA47F23050FFF7A8FED9
:10176000002000F091F904217D2000F0DFF94FF412
:101770009670FFF79DFE00217C2000F0D7F94FF412
:101780009670FFF795FEAB21402000F0CFF94FF4A3
:101790009670FFF78DFE0021412000F0C7F94FF44D
:1017A0009670FFF785FE0821532000F0BFF94FF433
:1017B0009670FFF77DFE0421582000F0B7F94FF432
:1017C0009670FFF775FE00210F2000F02BFA4FF402
:1017D0009670FFF76DFE8221102000F023FA4FF47F
:1017E0009670FFF765FE0021112000F01BFA4FF400
:1017F0009670FFF75DFE8021152000F013FA4FF47C
:101800009670FFF755FE0021162000F00BFA4FF4FA
:101810009670FFF74DFE0121182000F003FA4FF4F7
:101820009670FFF745FE00E003E0012012490870C2
:101830000CE000208DF80300684606F0C3FB07F0BB
:101840005BFF46F2A810FFF733FE69E700BF00BF59
:101850000A4800780028FBD019B000BD0000024003
:101860000004024000080240003001403002002025
:10187000586402403802002040020020420200204A
:1018800010B5044600BF0F4802F043FF0028FAD10C
:1018900021460C4802F0F4FF01210A4802F02EFF15
:1018A00000BF0848183002F034FF0028F9D1214663
:1018B0000448183002F0E4FF01210248183002F019
:1018C0001DFF10BD40640240284880782749C97830
:1018D00040EA012000B226490880244800792349C3
:1018E000497940EA012000B2214948801F488079A7
:1018F0001E49C97940EA012000B21D498880084686
:10190000B0F9000000EE100AB8EEC00ADFED190AC7
:1019100020EE200ADFED180A20EE200A174880ED9D
:10192000000A0846B0F9020000EE100AB8EEC00A3C
:10193000DFED100A20EE200ADFED0F0A20EE200A6C
:101940000E4880ED010A0846B0F9040000EE100AC6
:10195000B8EEC00ADFED070A20EE200ADFED060A26
:1019600020EE200A054880ED020A70473802002068
:1019700044020020E7416B3A977E803F90070020A9
:10198000254840782449897840EA012000B223495B
:1019900008802148C0782049097940EA012000B236
:1019A0001E4948801C4840791B49897940EA01203A
:1019B00000B21A4988800846B0F9000000EE100A0B
:1019C000F8EEC00A9FED161A9FED160A00EE810A86
:1019D000154880ED000A0846B0F9020000EE100A32
:1019E000F8EEC00A9FED0E1A9FED100A10EE810A64
:1019F0000D4880ED010A0846B0F9040000EE100A17
:101A0000F8EEC00A9FED061A9FED090A10EE810A52
:101A1000054880ED020A7047380200204A02002083
:101A200058A08B3AEE91C3399C070020FB927D3B76
:101A3000E14E063B11498978C900104AD27841EA43
:101A40006210B0F5806F05DBA0F5006109B20C4AA9
:101A5000118002E001B20A4A11800949B1F900106F
:101A600000EE101AF8EEC00AB4EE001AB3EE070A40
:101A700000EE810A034981ED000A70473802002018
:101A8000500200205402002010B50446002210210C
:101A9000244803F00CFE00BF0221234806F0AFFDEE
:101AA0000128F9D144F080011F4806F0B4FD00BFC1
:101AB00002211D4806F0A3FD0128F9D100211A4892
:101AC00006F0A9FD00BF0121174806F098FD012886
:101AD000F9D1154806F09CFD00BF0221124806F01E
:101AE0008EFD0128F9D100210F4806F094FD00BFBA
:101AF00001210D4806F083FD0128F9D10A4806F0BE
:101B000087FD00BF0121084806F079FD0128F9D1C1
:101B100001221021034803F0CAFD034806F078FDB6
:101B2000C0B210BD000002400030014070B5044654
:101B30000D46002210211A4803F0B9FD00BF022112
:101B4000184806F05CFD0128F9D104F07F01154822
:101B500006F061FD00BF0221124806F050FD012889
:101B6000F9D129460F4806F056FD00BF01210D4866
:101B700006F045FD0128F9D10A4806F049FD00BFED
:101B80000121084806F03BFD0128F9D1054806F07F
:101B90003FFD01221021024803F089FD70BD0000C5
:101BA000000002400030014010B50446002201212F
:101BB0001A4803F07CFD00BF0221194806F01FFD02
:101BC0000128F9D144F08001154806F024FD00BF3A
:101BD0000221134806F013FD0128F9D10021104815
:101BE00006F019FD00BF01210D4806F008FD01288F
:101BF000F9D10B4806F00CFD00BF0121084806F0A2
:101C0000FEFC0128F9D101221146044803F04FFDE2
:101C1000034806F0FDFCC0B210BD00000004024005
:101C20000030014070B504460D46002201211A48DB
:101C300003F03DFD00BF0221184806F0E0FC01283A
:101C4000F9D104F07F01154806F0E5FC00BF022140
:101C5000124806F0D4FC0128F9D129460F4806F0B5
:101C6000DAFC00BF01210D4806F0C9FC0128F9D1BA
:101C70000A4806F0CDFC00BF0121084806F0BFFC71
:101C80000128F9D1054806F0C3FC0122114602489B
:101C900003F00DFD70BD0000000402400030014063
:101CA000D2ED020A92ED021AB6EE000A00EEC10A67
:101CB000D2ED030A92ED031A00EEC10AD0ED000A3C
:101CC00020EE200AD2ED010A92ED021A60EE810A9E
:101CD00092ED001AD2ED031A41EE610A90ED011A5D
:101CE00000EE810AD2ED010A92ED031A60EE810A3C
:101CF00092ED001AD2ED021A41EE210A90ED021A7D
:101D000000EE810AF0EE000A20EE200A81ED000AC2
:101D100092ED010AD2ED020A20EE200AD2ED000A6D
:101D200092ED031A00EE810AD0ED000A60EE200A5F
:101D300092ED011AD2ED011AB6EE000A01EE610A27
:101D4000D2ED031A92ED032AB0EE401A01EEC21A48
:101D5000D0ED011AB0EE600A01EE210AD2ED020ABE
:101D600092ED031A60EE810A92ED001AD2ED011A8B
:101D700041EE610A90ED021A00EE810AF0EE000ACF
:101D800020EE200A81ED010A92ED010AD2ED030A4C
:101D900020EE200AD2ED000A92ED021A00EEC10AEE
:101DA000D0ED000A20EE200AD2ED020A92ED031ACD
:101DB00060EE810A92ED001AD2ED011A41EE210A7D
:101DC00090ED011A00EE810A92ED011AD2ED011A8E
:101DD000F6EE000A41EE610A92ED021AD2ED021A05
:101DE00041EE610A90ED021A00EE810AF0EE000A5F
:101DF00020EE200A81ED020A704700BFFEE70000D6
:101E000000B58BB00121042006F02EFA0121082034
:101E100006F01AFA214806F0EDFE02208DF828009F
:101E200000208DF82A0001208DF82B0080030990F6
:101E300002208DF8290009A9194803F0BFFB0222EE
:101E40000E21174803F002FC0020ADF82000ADF889
:101E50001A000920079044F69220ADF818000020DF
:101E60008DF8220006A90D4806F02CFF01A806F007
:101E700017FF6020ADF804000020ADF8100001202D
:101E8000ADF806000020039001A9044806F0B8FE52
:101E90000121024806F088FE0BB000BD000800409A
:101EA000000C024010B5044601210B4806F07CFEF0
:101EB00064B10A4830F8140081B20022064806F0E6
:101EC000F9FE0521044806F0F8FE03E0002102486F
:101ED00006F0F3FE10BD000000080040E001002005
:101EE0001CB50221364800F027FB012866D1684660
:101EF00000F02AF9044607F02BFC05F0E3FD314819
:101F00000078012802D100202E4908702E482F4960
:101F1000097850F8310020B9A0B2694605F002FEF8
:101F200016E029482949097850F83100012804D1E0
:101F3000A0B2694603F044F80AE02348234909782F
:101F400050F83100032803D1E0B2694602F09AFC50
:101F50001E480078401C1E49097890FBF1F201FBF5
:101F600012001A49087008460078002811DB08465C
:101F700000781849097888420BDA1349134A127815
:101F800001EBC201486800F0C1F8002000F0FAF847
:101F90000DE0002000F0BAF80C4909780D4A1278DB
:101FA000891A0D4A02EBC101486800F0EBF805F010
:101FB00091FD0221024800F0E7F900BF1CBD0000BE
:101FC000006400405902002010000020B3000020EF
:101FD000B2000020B0000020600000201CB51021DD
:101FE000434800F0A9FA01287ED1684600F0E8F8DD
:101FF000044607F0ADFB05F065FD3E48007801287A
:1020000002D100203B4908703B4800783B490978E1
:10201000401A3B4951F83000012804D1A0B269466A
:1020200003F0E6F92AE03448007834490978401A88
:10203000334951F83000022804D16946204600F0A7
:1020400005FD1BE02C4800782C490978401A2C49E2
:1020500051F83000032804D1E0B2694602F012FCC6
:102060000CE02548007825490978401A244951F8A0
:102070003000042802D1684607F0BCFA1E480078F8
:10208000401C2049097890FBF1F201FB12001A492B
:10209000087008460078002811DB084600781749C8
:1020A000097888420BDA1849134A127801EBC20109
:1020B000486800F02BF8002000F064F80DE00020E4
:1020C00000F024F80C4909780C4A1278891A0C4A55
:1020D00002EBC101486800F055F805F0FBFC102147
:1020E000034800F051F900E000E000BF1CBD000013
:1020F0000068004059020020B3000020B00000201A
:1021000060000020B2000020100000200C49096887
:1021100041F001010A4A11600A4941EA4011084AA6
:1021200040321160074941EA4012054944310A60D2
:102130000349096821F00101014A1160704700005C
:10214000006600400000E3FF10B586B004460021A1
:102150000B4800F014FB10B9002006B010BD01AA16
:102160000021074800F01AFB002004E00DF10F01E8
:10217000095C2154401C0828F8D30198EDE70000C1
:10218000006400400C49096841F001010A4A1160ED
:102190000A4941EA40120849B8310A60074941EA50
:1021A00040120549BC310A600349096821F0010168
:1021B000014A116070470000006600400000E3FF24
:1021C00010B586B0044601210B4800F0D8FA10B9CA
:1021D000002006B010BD01AA0121074800F0DEFA78
:1021E000002004E00DF10F01095C2154401C082877
:1021F000F8D30198EDE700000068004000B58BB00F
:102200000121480606F030F80121880606F02CF876
:102210000121022006F018F80121082006F014F828
:1022200002208DF8280000208DF82A0001208DF86A
:102230002B00032009908DF8290009A94D4803F0CF
:10224000BDF96020099009A94B4803F0B7F90922AC
:102250000021484803F0FAF909220121454803F01A
:10226000F5F909220521444803F0F0F90922062175
:10227000414803F0EBF900208DF81A000320ADF877
:10228000180000208DF81B0009208DF81C0002208A
:102290008DF81D0000208DF81E0001208DF81F0014
:1022A0008DF820008DF8210000208DF822008DF897
:1022B000230006A9314800F0D8F906A9304800F0FB
:1022C000D4F900208DF81200ADF810008DF813003D
:1022D0008DF814002B4840684FF6FF7101EA40105A
:1022E000ADF808002748406801EA4010ADF80A0040
:1022F0004FF6E370ADF80C00ADF80E0001208DF83C
:10230000150002A800F094F80F208DF812000120AB
:10231000ADF810000020ADF80800ADF80A0002A8E2
:1023200000F086F801220221144800F095F90122FC
:102330001021134800F090F94FF4A06005F07EFEE4
:1023400014208DF8040001208DF807008DF8050099
:102350008DF8060001A805F035FE41208DF8040037
:1023600001208DF805008DF8060001A805F02AFE71
:102370000BB000BD000C02400004024000640040AD
:102380000068004010000020B1F5007F3AD00FDC5B
:10239000202928D006DC01291CD004291DD00829B9
:1023A00040D11DE0402921D0B1F5807F3AD126E00F
:1023B000B1F5004F31D006DCB1F5806F25D0B1F515
:1023C000006F2FD124E0B1F5803F12D0B1F5003F6E
:1023D00028D111E0154A826025E00822C26022E07F
:1023E0001022C2601FE0082202611CE0102202617C
:1023F00019E00822426016E01022426013E0042235
:10240000426010E0042242600DE0042242600AE0D3
:10241000002282610422426005E0002282610422DF
:10242000426000E000BF00BF7047000001010100F2
:1024300010B50021837A012202FA03F13D4A1268A5
:1024400042F001023B4B1A603A4A1C3212688A433E
:10245000384B1C331A60027BCAB9364A0C321268F8
:102460008A43344B0C331A604288C38842EA0343E0
:10247000304A4032847A42F834300288838842EA13
:1024800003432C4A4032847A02EBC4025360027B3D
:10249000012A19D1274A0C3212680A43254B0C3302
:1024A0001A604288038842EA0343224A4032847A0F
:1024B00042F83430C288838842EA03431D4A4032DE
:1024C000847A02EBC4025360C27A3AB9194A121DE7
:1024D00012688A43174B1B1D1A6006E0154A121D2D
:1024E00012680A43134B1B1D1A60028932B9114A44
:1024F000143212688A430F4B14331A600289012A7E
:1025000006D10C4A143212680A430A4B14331A607B
:10251000427B012A06D1074A1C3212680A43054B46
:102520001C331A60034A126822F00102014B1A6040
:1025300010BD00000066004070B504460D46002640
:1025400060692840002871D0B5F5807F5CD010DC30
:10255000082D35D006DC012D20D0022D24D0042DED
:1025600072D127E0102D31D0202D35D0402D6BD1E8
:1025700038E0B5F5004F60D009DCB5F5007F49D0F3
:10258000B5F5806F4CD0B5F5006F5DD14FE0B5F576
:10259000803F2DD0B5F5003F56D12FE0A0682D49E2
:1025A00001F0DAFF064651E0E068032101F0D4FFB4
:1025B00006464BE0E068082101F0CEFF064645E004
:1025C000E068102101F0C8FF06463FE020690321C2
:1025D00001F0C2FF064639E02069082101F0BCFF86
:1025E000064633E02069102101F0B6FF06462DE0D3
:1025F0006068082101F0B0FF064627E060681021FE
:1026000001F0AAFF064621E0A069012101F0A4FF24
:1026100006461BE0A069022101F09EFF064615E078
:10262000A069042101F098FF06460FE00FE0A069C1
:10263000702101F091FF064608E06068042101F076
:102640008BFF064602E0FFE7002600BF00E0002601
:10265000304670BD010101001AB143690B4343616B
:1026600002E043698B434361704730B50246002066
:102670000023146824F002041460146844F0010478
:10268000146000E05B1C546804F001041CB94FF6B0
:10269000FF74A342F6D1546804F001040CB9002081
:1026A0006CE08C79012C04D1146844F0800414602F
:1026B00003E0146824F080041460CC79012C04D168
:1026C000146844F04004146003E0146824F04004EB
:1026D00014600C7A012C04D1146844F020041460B6
:1026E00003E0146824F0200414604C7A012C04D117
:1026F000146844F01004146003E0146824F010041B
:1027000014608C7A012C04D1146844F0080414601D
:1027100003E0146824F008041460CC7A012C04D17E
:10272000146844F00404146003E0146824F0040402
:1027300014608C78A407CD7844EA05640D7944EAE6
:1027400005444D7944EA05540D886D1E2C43D4612F
:10275000146824F001041460002300E05B1C54683A
:1027600004F001041CB14FF6FF74A342F6D1546883
:1027700004F001040CB1002000E0012030BD02464D
:10278000002019B9D36803F0030006E0012903D142
:10279000136903F0030000E00020704710B500F556
:1027A000D87303EB01131B6803F004031372137A4D
:1027B00053B900F5D87303EB01131B6840F2FF74A3
:1027C00004EA5353136009E000F5D87303EB0113D7
:1027D0001B686FF0604404EAD303536000F5D873BC
:1027E00003EB01131B6803F00203537200F5D87367
:1027F00003EB01135B6803F00F03937200F5D873CA
:1028000003EB01135B681B0AD37400F5D87303EB69
:1028100001139B68D37200F5D87303EB01139B6817
:102820001C0A147300F5D87303EB01139B681C0C8E
:10283000547300F5D87303EB01139B681B0E93735D
:1028400000F5D87303EB0113DB68D37300F5D8737D
:1028500003EB0113DB681C0A147400F5D87303EB57
:102860000113DB681C0C547400F5D87303EB0113DF
:10287000DB681B0E937411B92023C36001E0202391
:10288000036110BD10B502460020936803F0806319
:10289000B3F1806F00D110E0936803F00063B3F1EF
:1028A000006F01D1012008E0936803F08053B3F179
:1028B000805F01D1022000E00420042874D002F5DA
:1028C000C07303EB00131B6803F0010402F5C0732F
:1028D00003EB00131C600B7A7BB94B7A0C8843EA3C
:1028E000445302F5C07404EB00142468234302F53A
:1028F000C07404EB0014236010E00B7A4C6843EAC8
:10290000C4034C7A234302F5C07404EB001424681A
:10291000234302F5C07404EB001423608B7A03F0A8
:102920000F038B7202F5C07303EB00135B6823F097
:102930000F0402F5C07303EB00135C6002F5C07373
:1029400003EB00135B688C7A234302F5C07404EB3D
:10295000001463608B7B1C064B7B44EA03440B7BB7
:1029600044EA0323CC7A234302F5C07404EB001439
:10297000A3608B7C1C064B7C44EA03440B7C44EA3A
:102980000323CC7B234302F5C07404EB0014E36003
:1029900002F5C07303EB00131B6843F0010402F55A
:1029A000C07303EB00131C6010BD000010B502469D
:1029B000002321B1012907D002290FD109E0906835
:1029C0001D4C00EA04030BE090681C4C00EA040371
:1029D00006E090681A4C00EA040301E0002300BFFF
:1029E00000BF184C181BA34216D007DC83B16FF050
:1029F0008060184470B1022818D111E0B0F5007F52
:102A000010D0114C204448B1B0F5003F0ED10BE07E
:102A100002230DE000230BE0002309E0002307E080
:102A2000012305E0012303E0012301E0002300BFAF
:102A300000BFD8B210BD000003000004000300086E
:102A400000000310000100080001FFF740F24912E6
:102A5000904218D14A780B7842EA0322294B1A8017
:102A6000CA788B7842EA0322264B5A804A790B793E
:102A700042EA0322234B9A80CA798B7942EA0322E5
:102A8000204BDA803DE040F28912904214D10A785E
:102A90001D4B1A704A781B4B5A728A781A77CA787B
:102AA0005A770A79194B1A704A79164B1A728A7931
:102AB0005A74CA799A7724E0652822D14A780B782B
:102AC00042EA032200EE102AB8EE400ADFED100AB7
:102AD00080EE201A0F4A82ED001ACA788B7842EAFB
:102AE000032200EE102AB8EE400ADFED090A80EE5C
:102AF000201A094A82ED001A0A79024B1A764A799D
:102B00005A7670474C0700202A0200202B02002032
:102B10000000C842600200206402002030B585B089
:102B20001920009000208DF809008DF80800082079
:102B30008DF80A00184800788DF80B0017480178C6
:102B40008DF80C10164801788DF80D1000218DF8C5
:102B50000E108DF80F108DF810108DF811108DF8E3
:102B6000121069460F48FFF78DFE0546002401E06C
:102B7000601C84B229460B48FFF718FF18B940F6CD
:102B8000FF708442F4DB40F6FF70844202DB0020D9
:102B900005B030BD0120FBE7A4020020B1020020F7
:102BA000B80200200068004030B52DED108B81B0D8
:102BB000FB48007802280BD1FA48007A032807D195
:102BC000F948007808B9012000E00020F6490870B3
:102BD000F448007AF2490870F4480078012805D1D9
:102BE000F048007E10B90020EF490870ED48007EE3
:102BF000EE490870EC48007801287DD1EC48008847
:102C000041F20661081A05B2002D02DA05F50050FE
:102C100005B200EE105AB8EEC00ADFEDE60A20EE6B
:102C2000200AE54880ED000AFFEE00CAB7EE00DAA0
:102C3000F7EE00DAB7EE00EAF7EE00EAB7EE00FAD8
:102C4000FFEE00FAB7EE000A8DED000ADB4890EDCA
:102C5000120AB0EE401ADA49DA48F0EE4D0AB0EE48
:102C60006C0A00F0FBFDD54890ED060AB0EE401A64
:102C7000D349091FD348001FF0EE4E0AB0EE6D0A8B
:102C800000F0ECFDCD4890ED1E0AB0EE401ACC49A4
:102C9000091DCC48001DF0EE4F0AB0EE6E0A00F0A0
:102CA000DDFDC64890ED2A0AB0EE401AC44908314D
:102CB000C4480830DDED000AB0EE6F0A00F0CEFD2A
:102CC000C048001F90ED032AF0EE421A90ED022A50
:102CD000B0EE421A90ED002AF0EE420A90ED012A81
:102CE000B0EE420A00F072FE00231A46194618465A
:102CF00001F01AF901B000E002E0BDEC108B30BD2C
:102D0000A8480088A0F5806000EE100AF8EEC08A9E
:102D1000A4484088A0F5806000EE100AB8EEC08A92
:102D2000A0488088C0F5806000EE100AB8EEC0AA06
:102D3000A548007828B99FEDA50AB0EE408AF0EECC
:102D4000408A68EEA80A48EE080AB0EE600A07F06A
:102D500087FCF0EE409AB0EE690AB5EEC00AF1EEDB
:102D600010FA0FD088EEA90AF0EE080A20EE200A29
:102D7000F0EE408A88EE290AF0EE080A20EE200ADA
:102D8000B0EE408A8A48008841F20661081A04B20F
:102D9000002C02DA04F5005004B200EE104AB8EE3E
:102DA000C00ADFED840A20EE200A834880ED000A85
:102DB000F0EE68BAB0EE48CA90ED000A07F07EFA6D
:102DC000F0EE6B8A60EE28CA7B4890ED000A07F0AF
:102DD0007FFBB0EE4C8A48EE40CAF0EE6C8A764833
:102DE00090ED000A07F074FB60EE2BCA724890ED7C
:102DF000000A07F063FAB0EE4C8A48EE00CAB0EE63
:102E00006C8A00BF6748007A022824D06548407A5F
:102E1000022815D06348007F012811D06C48007843
:102E2000012819D16B480078012815D1604890ED30
:102E3000060ADFED690AB4EEE00AF1EE10FA0BDDE6
:102E4000B9EE040AB0EE40AA9FED609A01206049F5
:102E5000087060490870FFE05D48007801283FD1A4
:102E60005348008841F26A61884218DC5048008863
:102E700041F2A251884212DB4D4890ED080AF0EE73
:102E8000000AB4EEE00AF1EE10FA08DC90ED080A50
:102E9000F8EE000AB4EEE00AF1EE10FA20D24D4846
:102EA000007830B10020424A9060D06049490870F3
:102EB000D2E0F1EE000AB9EE000A484805F078F9D0
:102EC0003B48D0ED060AB0EE600A444805F0C0F871
:102ED0009FED3E0AB0EE40AA404890ED109ABBE04C
:102EE0003048407A012811D039480078022819D199
:102EF00038480078022815D12D4890ED060ADFEDFC
:102F0000380AB4EEE00AF1EE10FA0BD2B1EE040A80
:102F1000B0EE40AA9FED2D9A02202D4908702D4950
:102F2000087099E02A48007802285BD12048008880
:102F300041F26A61884218DC1D48008841F2A251C2
:102F4000884212DB1A4890ED080AF0EE000AB4EE4F
:102F5000E00AF1EE10FA08DC90ED080AF8EE000A3B
:102F6000B4EEE00AF1EE10FA3CD2F1EE000AB9EE4E
:102F7000000A1A4805F01CF90D48D0ED060AB0EE1B
:102F8000600A164805F064F89FED100AB0EE40AAFA
:102F9000124890ED109A00200E4908705CE0000085
:102FA000090400204C070020F00300200A04002040
:102FB000280A0020DB0F493AD0030020780B0020BC
:102FC000E4030020901200202A02002000000000EC
:102FD000D403002000040020007848463812002066
:102FE0000070CF45F1EE040AB9EE040AF74805F087
:102FF000DFF80020F6490870F648D0ED060AB0EE7A
:10300000600AF24805F024F81FED100AB0EE40AA5D
:10301000EE4890ED109AEF4890ED060ADFEDEE0ACB
:10302000B4EEE00AF1EE10FA16D290ED060ADFEDEA
:10303000EB0AB4EEE00AF1EE10FA0DDDF5EEC08A0F
:10304000F1EE10FA08D1B5EEC08AF1EE10FA03D114
:103050001FED220AB0EE409AE148407C012803D1DE
:103060001FED260AB0EE409ADE48008800EE100AF6
:10307000B8EE400ADFEDDC0A60EE20AAB1EE000AED
:10308000F4EEC0AAF1EE10FA03DDB1EE000AF0EEA4
:1030900040AAD648008800EE100AB8EE400A2AEE90
:1030A000800AD34880ED000A9FEDD20A89EE80BAEB
:1030B000B7EE000AB4EEC0BAF1EE10FA0AD2B5EEDD
:1030C000C0BAF1EE10FA05DD90ED000A20EE0B0A11
:1030D00080ED000ABE48007801280AD1C348008864
:1030E00000EE100AB8EE400A2AEE800AC04880EDD1
:1030F000000AC14890ED000ADFEDC00A80EE201AF8
:103100009FEDBF0AB4EEC01AF1EE10FA48DDB448E4
:10311000407F01283BD1B64890ED000AB5EEC00AC9
:10312000F1EE10FA23DDD0ED000AB048008800EE81
:10313000100AB8EE400AF4EEC00AF1EE10FA09D215
:10314000AB4890ED000ADFEDAF0A30EE200A80EDCB
:10315000000A0CE0A548008800EE100AB8EE400A0C
:10316000DFEDA80A30EE200AA14880ED000A012018
:103170009C49098800EE101AF8EE400A9B4909881C
:1031800000EE101AB8EE400A06F054FA32E00120C0
:10319000DFED9D0A964991ED000A06F04BFA29E011
:1031A000F5EEC08AF1EE10FA09D1B5EEC08AF1EE63
:1031B00010FA04D1B5EEC0AAF1EE10FA08D0012041
:1031C000DFED910A8A4991ED000A06F033FA0EE02C
:1031D00001208449098800EE101AF8EE400A83495C
:1031E000098800EE101AB8EE400A06F023FA002013
:1031F0007B494877854890ED160AD0ED0A0A30EEF3
:10320000200AD0ED220A30EE200AD0ED2E0A30EE50
:10321000200ADFED7F0A20EE200A7E4880ED000ABA
:10322000734890ED000A7B48D0ED000A30EE600A4A
:10323000794880ED000A90ED000AB5EEC00AF1EE83
:1032400010FA03D21FED9F0A80ED000A734890ED3B
:10325000250AD0ED110A30EE200AD0ED390A30EE01
:10326000200AD0ED4D0A30EE200ADFED6D0A20EE87
:10327000200A6C4880ED000A6B4890ED000A69480E
:10328000D0ED000A30EE200A674880ED000A67485A
:10329000007800EE100AB8EE400AF1EE040AB4EE2F
:1032A000600AF1EE10FA78D10020604908705E489B
:1032B000D0ED000AB1EE041AC0EE811AB0EE610A38
:1032C0005FEDBE0AC0ED000A534890ED001AF0EE23
:1032D000001AC1EE210AF4EEC00AF1EE10FA16DD72
:1032E0005348D0ED000A9FED531A70EE810AC0EDED
:1032F000000AD0ED000AB0EE001AF4EEC10AF1EEB9
:1033000010FA62DDF0EE000AC0ED000A5DE042480E
:10331000D0ED000AB1EE041A70EEC10AF4EEC00A54
:10332000F1EE10FA16DD4248D0ED000A9FED421A88
:1033300070EE810AC0ED000AD0ED000AB0EE001A6E
:10334000F4EEC10AF1EE10FA3FDDF0EE000AC0ED36
:10335000000A3AE03048D0ED000AB1EE041A70EEEF
:10336000810AF4EEC00AF1EE10FA2ED21D48008850
:1033700000EE900AF8EE600AB3EE0E1AF4EEC10AFF
:10338000F1EE10FA0AD22A48D0ED000A9FED291A70
:1033900070EEC10AC0ED000A09E04FE02448D0ED0C
:1033A000000A9FED251A70EEC10AC0ED000A204800
:1033B000D0ED000AB5EE001AF4EEC10AF1EE10FAF3
:1033C00003D2F5EE000AC0ED000A50E038120020EA
:1033D000D4030020280A00200070B64500F0A9455B
:1033E0004C070020AE0200208988083DAC02002076
:1033F000DC030020000025444403002000007F433C
:10340000CDCCCC3D0000C84200004842780B0020E3
:1034100066908A40B0030020C4030020A807002063
:10342000D7B3DD3FD80300200C040020080400209F
:1034300004040020CDCC4C3D0AD7A33CF5EEC08A55
:10344000F1EE10FA08D1B5EEC08AF1EE10FA03D110
:1034500029480078012805D128480078401C2749D0
:10346000087004E0B6EE000A254880ED000A224804
:10347000007801281BD1F5EEC08AF1EE10FA04D1D4
:10348000B5EEC08AF1EE10FA11D0B7EE000A2AEEBE
:10349000000AB0EE40AAB7EE000A28EE800AF0EE6D
:1034A000408AB7EE000A28EE000AB0EE408A1448BF
:1034B00090ED000A28EE800AF0EE408A90ED000AB6
:1034C00028EE000AB0EE408A0B480078012806D1A9
:1034D0000B4890ED000A2AEE000AB0EE40AA3AEE40
:1034E000090AB0EE401AF0EE480AB0EE680A00F0A1
:1034F00041F800BFFFF7FEBBD40300200804002002
:103500000404002010B59FED140A144804F05CFE7A
:103510009FED131ADFED130A9FED130A0F4804F015
:103520004CFEF1EE040AB9EE040A0C4804F036FE33
:10353000DFED0E0A9FED0E0A084804F034FEF1EEAE
:10354000000AB9EE000A054804F032FE00F03CFA29
:1035500000F0C4FC10BD00000030B045381200205F
:1035600000000000BD3706356F12833B0000FA43B0
:103570000000FAC310B52DED108B84B0F0EE408A38
:10358000B0EE609AB0EE418ADFEDAD0AB0EE680AA7
:1035900008EE600AF0EE40BADFEDA90AB0EE490A83
:1035A00008EE600AF0EE409A2BEEAB0A09EEA90A8B
:1035B0008DED030ADFEDA20AB0EE680A08EE600A9C
:1035C000B0EE40CADFED9E0AB0EE490A08EE200ACE
:1035D000B0EE40AA2CEE0C0A0AEE0A0A8DED020AA1
:1035E000DFED970AB0EE680A08EE200AF0EE40CA56
:1035F000DFED930AB0EE490A08EE600AF0EE40AA49
:103600002CEEAC0A0AEEAA0A8DED010ADFED8C0A57
:10361000B0EE680A08EE200AB0EE40DADFED880A64
:10362000B0EE490A08EE200AB0EE40BA2DEE0D0ABF
:103630000BEE0B0A8DED000A03A89DED030A08F0BE
:1036400069FD02A89DED020A08F064FD01A89DED48
:10365000010A08F05FFD68469DED000A08F05AFD7A
:10366000784890ED120AB0EE401A77497748F0EEAC
:10367000690AB0EE6B0A00F0F1F8724890ED060AA4
:10368000B0EE401A7049091F7048001FF0EE4A0A58
:10369000B0EE4C0A00F0E2F86A4890ED1E0AB0EE77
:1036A000401A6949091D6948001DF0EE6A0AB0EE2A
:1036B0006C0A00F0D3F8634890ED2A0AB0EE401A85
:1036C0006149083161480830F0EE4B0AB0EE4D0A0E
:1036D00000F0C4F85D48001F90ED032AF0EE421A96
:1036E00090ED022AB0EE421A90ED002AF0EE420A66
:1036F00090ED012AB0EE420A00F068F9DDED030A10
:103700009FED531A80EE810ADFED520A60EE200A27
:10371000B3EE011A80EE810ADFED4F0A20EE200A97
:10372000BDEEC00A10EE100A00B20DEE900ADDEDFB
:10373000020A9FED471A80EE810ADFED460A60EE2D
:10374000200AB3EE011A80EE810ADFED430A20EE73
:10375000200ABDEEC00A10EE100A00B20EEE100AEA
:10376000DDED010A9FED3A1A80EE810ADFED390A9C
:1037700060EE200AB3EE011A80EE810ADFED360A10
:1037800020EE200ABDEEC00A10EE100A00B20EEEC6
:10379000900ADDED000A9FED2E1A80EE810ADFED22
:1037A0002D0A60EE200AB3EE011A80EE810ADFEDE9
:1037B0002A0A20EE200ABDEEC00A10EE100A00B25E
:1037C0000FEE100A204C241F94ED030AF8EECF0AE6
:1037D00020EE200ABDEEC00A10EE104A23B21A4CA9
:1037E000241F94ED020AB1EE400AF8EEEE0A20EE34
:1037F000200ABDEEC00A10EE104A22B2124C241F5D
:1038000094ED000AF8EECE0A20EE200ABDEEC00AC2
:1038100010EE104A21B20C4C241F94ED010AB1EEB7
:10382000400AF8EEED0A20EE200ABDEEC00A10EEC6
:10383000104A20B200F078FB04B0BDEC108B10BD34
:10384000158C4A3E780B0020E403002090120020E3
:103850008FC2753D00008643EBC9184170B52DED50
:10386000108BF0EE409AB0EE60FAF0EE418A04461A
:103870000D46F5EEC09AF1EE10FA07D1B5EEC0FA9A
:10388000F1EE10FA02D1BDEC108B70BD19EE900A6A
:10389000FDF78FFB41EC1D0B1FEE100AFDF789FBB6
:1038A00041EC1E0BB0EE4D1AF0EE6D1AB0EE4E0A62
:1038B000F0EE6E0A06F0ACFAB0EE40CAF0EE60CA66
:1038C00051EC1C0B81F0004141EC1B0B9FED370BC1
:1038D00053EC102BFDF71DFA41EC1A0BFDF77CFBA6
:1038E00009EE100AB5EEC09AF1EE10FA05D29FED7E
:1038F000310A39EE000AB0EE409A39EE680AB0EEAD
:10390000408ADFED2C0AB0EE480A06F089FDB0EEE1
:10391000408A9FED290AB4EEC08AF1EE10FA05D272
:103920009FED240A38EE000AB0EE408A9FED230A8C
:10393000B4EEC08AF1EE10FA05DD9FED1E0A38EEF6
:10394000400AB0EE408A9FED1E0AB4EEC08AF1EE46
:1039500010FA0CDD38EE880ADFED180A30EE600A46
:1039600084ED000ABFEE000A85ED000A1BE09FED22
:10397000150AB4EEC08AF1EE10FA0CD238EE880ABD
:10398000DFED0E0A30EE200A84ED000ABFEE000AD9
:1039900085ED000A07E038EE880A84ED000AB7EEEC
:1039A000000A85ED000A00BF6DE70000000000601E
:1039B000FB21F93FDB0FC940DB0F49C0DB0F49405A
:1039C000DB0FC93FDB0FC9BF7047000010B52DEDFD
:1039D000108B88B0F0EE40AAB0EE60BAF0EE41BABB
:1039E000B0EE61DA00200490059006900790FE4842
:1039F000008800EE100AB8EE400AF6EE080A20EE43
:103A0000200AF5EE000A20EE200AB0EE408AF748C0
:103A100090ED120A3AEEC00ADFEDF50A20EE200A18
:103A2000D0ED140A9FEDF31A01EE600A8DED050A40
:103A30009DED050AF0EE000AB4EEE00AF1EE10FA90
:103A400003DDB0EE000A8DED050A9DED050AF8EEE6
:103A5000000AB4EEE00AF1EE10FA03D2B8EE000A62
:103A60008DED050AE14890ED140ADFEDE30A20EE42
:103A7000200ADDED050A20EE200A10EE101A084695
:103A8000FDF797FA41EC1E0BB0EE4E0AF0EE6E0A0F
:103A900006F0BCFCB0EE40CAF0EE60CA9FEDD70B5A
:103AA00053EC102B51EC1C0BFDF7DAF941EC1F0B1A
:103AB000FDF792FA08EE900AF4EEC88AF1EE10FAD9
:103AC00007DD88EE280ADDED050A20EE200A8DEDDF
:103AD000050AC64890ED060A3BEE400ADFEDC40A2F
:103AE00020EE200AD0ED080A9FEDC21A01EE600A0E
:103AF0008DED040A9DED040AF0EE000AB4EEE00A32
:103B0000F1EE10FA03DDB0EE000A8DED040A9DED32
:103B1000040AF8EE000AB4EEE00AF1EE10FA03D25D
:103B2000B8EE000A8DED040AB04890ED080ADFED0A
:103B3000B20A20EE200ADDED040A20EE200A10EE83
:103B4000101A0846FDF735FA41EC1E0BB0EE4E0A8E
:103B5000F0EE6E0A06F05AFCB0EE40FAF0EE60FAB3
:103B60009FEDA60B53EC102B51EC1F0BFDF778F9D2
:103B700041EC1C0BFDF730FA09EE100AB4EEC89ABE
:103B8000F1EE10FA07DD88EE090ADDED040A20EEF9
:103B9000200A8DED040A954890ED1E0A3BEEC00AFE
:103BA000DFED930A20EE200AD0ED200A9FED911A56
:103BB00001EE600A8DED060A9DED060AF0EE000AA0
:103BC000B4EEE00AF1EE10FA03DDB0EE000A8DED7E
:103BD000060A9DED060AF8EE000AB4EEE00AF1EEE0
:103BE00010FA03D2B8EE000A8DED060A7F4890ED78
:103BF000200ADFED810A20EE200ADDED060A20EE24
:103C0000200A10EE101A0846FDF7D3F941EC1E0BFE
:103C1000B0EE4E0AF0EE6E0A06F0F8FBB0EE40CAC7
:103C2000F0EE60CA9FED750B53EC102B51EC1C0BA2
:103C3000FDF716F941EC1F0BFDF7CEF909EE900ADE
:103C4000F4EEC89AF1EE10FA07DD88EE290ADDEDF0
:103C5000060A20EE200A8DED060A644890ED2A0A35
:103C60003DEE400ADFED620A20EE200AD0ED2C0A7C
:103C70009FED601A01EE600A8DED070A9DED070ABF
:103C8000F0EE000AB4EEE00AF1EE10FA03DDB0EE59
:103C9000000A8DED070A9DED070AF8EE000AB4EE62
:103CA000E00AF1EE10FA03D2B8EE000A8DED070A31
:103CB0004E4890ED2C0ADFED500A20EE200ADDED93
:103CC000070A20EE200A10EE101A0846FDF771F9D7
:103CD00041EC1C0BB0EE4C0AF0EE6C0A06F096FBC1
:103CE000B0EE40EAF0EE60EA9FED440B53EC102B8F
:103CF00051EC1E0BFDF7B4F841EC1F0BFDF76CF90E
:103D00000AEE100AB4EEC8AAF1EE10FA07DD88EE4A
:103D10000A0ADDED070A20EE200A8DED070ADDED27
:103D2000050A9FED381A80EE810AB0EE081AC0EE3F
:103D3000010A9FED350A20EE800A8DED010A9DED06
:103D4000010ADFED310AB4EEE00AF1EE10FA03DD0C
:103D50009FED2D0A8DED010A9DED010ADFED2B0A85
:103D6000B4EEE00AF1EE10FA03D29FED280A8DEDD1
:103D7000010ADDED040A9FED231A80EE810AF0EEC0
:103D8000080A80EE201A9FED200A21EE000A8DED30
:103D9000000A9DED000ADFED1C0AB4EEE00AF1EE28
:103DA00010FA03DD9FED180A8DED000A9DED000A63
:103DB000DFED160AB4EEE00AF1EE10FA03D29FED41
:103DC000130A8DED000ADDED060A9FED0E1A80EE56
:103DD000810AF0EE080A80EE201A9FED0B0A21EE10
:103DE000000A8DED020A13E0AC020020780B0020DF
:103DF00020634A40E3369A3DD7B3DD3F0000000020
:103E0000000004402DB23D3F00008046000080C607
:103E10009DED020A5FED040AB4EEE00AF1EE10FA3D
:103E200003DD1FED070A8DED020A9DED020A5FED2D
:103E3000090AB4EEE00AF1EE10FA03D21FED0D0A02
:103E40008DED020ADDED070A1FED121A80EE810AE0
:103E5000F0EE080A80EE201A1FED150A21EE000A86
:103E60008DED030A9DED030A5FED190AB4EEE00A39
:103E7000F1EE10FA03DD1FED1C0A8DED030A9DED36
:103E8000030A5FED1E0AB4EEE00AF1EE10FA03D267
:103E90001FED220A8DED030A9DED030ABDEEC00A57
:103EA00010EE104A23B29DED020ABDEEC00A10EEDC
:103EB000104A22B29DED010ABDEEC00A10EE104A72
:103EC00021B29DED000ABDEEC00A10EE104A20B2EC
:103ED00001F042FA08B0BDEC108B10BD10B59FED9B
:103EE0000E0A0E4804F070F99FED0D1ADFED0C0A72
:103EF0009FED0C0A094804F060F9F1EE040AB9EEEE
:103F0000040A064804F04AF9F1EE000AB9EE000A84
:103F1000024804F04DF910BD0030B045E411002016
:103F2000000000006F12833BF0B52DED108B89B0BF
:103F300004460D4616461F4600EE104AF8EEC00A2B
:103F40009FEDFE1A80EE810AF0EE000A20EE200AB4
:103F5000DFEDFB0A20EE200AFA48B0F9740000EE0B
:103F6000900AF8EEE00A9FEDF51AC0EE811AF0EE25
:103F7000000A61EEA00A9FEDF21A00EEC10ADFED21
:103F8000F20A20EE200A8DED070A00EE105AB8EE74
:103F9000C00ADFEDEA0A80EE201AB0EE000A21EE38
:103FA000000ADFEDE70A20EE200AE648B0F9240017
:103FB00000EE900AF8EEE00A9FEDE01AC0EE811ADA
:103FC000F0EE000A61EEA00A9FEDDD1A00EEC10AD4
:103FD000DFEDDD0A20EE200A8DED060A00EE106A04
:103FE000B8EEC00ADFEDD50A80EE201AB0EE000A66
:103FF00021EE000ADFEDD20A20EE200AD148B0F906
:10400000C40000EE900AF8EEE00ADFEDCC1A80EE74
:10401000A11AF0EE000A61EE200A9FEDC91A00EE27
:10402000C10ADFEDC90A20EE200A8DED050A00EE77
:10403000107AF8EEC00A9FEDC11A80EE810AF0EE08
:10404000000A20EE200ADFEDBE0A20EE200ABD485D
:10405000B0F9140100EE900AF8EEE00A9FEDB71AED
:10406000C0EE811AF0EE000A61EEA00A9FEDB41ACC
:1040700000EEC10ADFEDB40A20EE200A8DED040A3D
:104080009DED070ADFEDB10A80EE201AB0EE41AADD
:10409000B3EE040AB4EEC0AAF1EE10FA03DDB3EEFB
:1040A000040AB0EE40AABBEE040AB4EEC0AAF1EED8
:1040B00010FA03D2BBEE040AB0EE40AA9DED060A48
:1040C000DFEDA20A80EE208AB3EE040AB4EEC08AC5
:1040D000F1EE10FA03DDB3EE040AB0EE408ABBEE57
:1040E000040AB4EEC08AF1EE10FA03D2BBEE040A61
:1040F000B0EE408A9DED050ADFED940AC0EE208AFD
:10410000B3EE040AF4EEC08AF1EE10FA03DDB3EE6A
:10411000040AF0EE408ABBEE040AF4EEC08AF1EE27
:1041200010FA03D2BBEE040AF0EE408A9DED040AB9
:10413000DFED860A80EE209AB3EE040AB4EEC09A50
:10414000F1EE10FA03DDB3EE040AB0EE409ABBEED6
:10415000040AB4EEC09AF1EE10FA03D2BBEE040AE0
:10416000B0EE409A7A4890ED000A7A4880ED000A55
:10417000744890ED220A20EE0A0ADFED770A20EE5D
:1041800020BA90ED0E0A20EE080ADFED730A60EE09
:1041900020BA90ED360A20EE280ADFED6F0A20EEF5
:1041A00020DA90ED4A0A20EE090ADFED6B0A60EE94
:1041B00020DA1BEE900AFCF7FCFE41EC1C0BB0EE83
:1041C0004C0AF0EE6C0A06F021F9B0EE40EAF0EE8F
:1041D00060EA1BEE100AFCF7ECFE41EC1C0BB0EEA3
:1041E0004C0AF0EE6C0A06F011F98DED000B53EC61
:1041F0001E2B9DED000B51EC100BFCF78AFD9FED83
:10420000570B53EC102BCDE902019DED020B51EC45
:10421000100BFCF725FE41EC1F0BFCF7DDFE0AEE50
:10422000900A1DEE900AFCF7C4FE41EC1C0BB0EEA8
:104230004C0AF0EE6C0A06F0E9F8B0EE40EAF0EE57
:1042400060EA1DEE100AFCF7B4FE41EC1C0BB0EE68
:104250004C0AF0EE6C0A06F0D9F88DED000B53EC29
:104260001E2B9DED000B51EC100BFCF752FD41ECA9
:104270001F0B9FED3A0B53EC102BFCF7F1FDCDE932
:1042800002019DED020B51EC100BFCF7A5FE09EEAF
:10429000900A3AEEA90A334880ED000A2D4890EDC5
:1042A000000AF2EE040AB4EEE00AF1EE10FA66DD5E
:1042B0002D4890ED000ADFED2D0A20EE200AB4EE25
:1042C000EA0AF1EE10FA17D290ED000ADFED270AA4
:1042D00060EE200A80EEAA0A20EE0A0AB0EE40AA9A
:1042E00090ED000ADFED210A60EE200A80EEAA0AB6
:1042F00020EE080AB0EE408A1B4890ED000ADFED80
:104300001C0A20EE200AB4EEE90AF1EE10FA35D2CA
:1043100090ED000ADFED160A60EE200A80EEA90A91
:1043200020EE280AF0EE408A90ED000ADFED100A38
:1043300060EE200A80EEA90A1CE020E00000704236
:10434000DB0F4940A80700203480B73C9A99993E7A
:1043500080020020CC0300208FAB003D000000E075
:104360007AB6FB3FC8030020C4030020CDCC4C3EEE
:10437000CDCC4C3F20EE090AB0EE409AA1E0724845
:1043800090ED000AFAEE040AB4EEE00AF1EE10FA3B
:1043900048D26E4890ED000A5FED0B0A20EE200A2D
:1043A000B4EEEA0AF1EE10FA17D290ED000A5FEDD2
:1043B000100A60EE200A80EEAA0A20EE0A0AB0EE89
:1043C00040AA90ED000A5FED160A60EE200A80EE2A
:1043D000AA0A20EE080AB0EE408A5C4890ED000A76
:1043E0005FED1E0A20EE200AB4EEE90AF1EE10FAA3
:1043F00067D290ED000A5FED230A60EE200A80EE9E
:10440000A90A20EE280AF0EE408A90ED000A5FED3E
:10441000290A60EE200A80EEA90A20EE090AB0EE11
:10442000409A4EE0494890ED000AF7EE000A20EE6F
:10443000200A4748D0ED000AB4EEE00AF1EE10FA87
:104440003FD2424890ED000AF7EE000A60EE200AE3
:104450003F4890ED001A80EE810A20EE0A0AB0EE85
:1044600040AA3A4890ED000AF7EE000A60EE200AF2
:10447000374890ED001A80EE810A20EE080AB0EE6F
:10448000408A324890ED000AF7EE000A60EE200AFA
:104490002F4890ED001A80EE810A20EE280AF0EEF7
:1044A000408A2A4890ED000AF7EE000A60EE200AE2
:1044B000274890ED001A80EE810A20EE090AB0EE3E
:1044C000409AF3EE040A8AEE200ADFED220A20EE7B
:1044D000200AB0EE40AAF3EE040A88EE200ADFEDCF
:1044E0001D0A20EE200AB0EE408AF3EE040A88EEA0
:1044F000A00ADFED180A20EE200AF0EE408AF3EE63
:10450000040A89EE200ADFED130A20EE200AB0EE3D
:10451000409ABDEEC90A10EE100A03B2BDEEE80AD9
:1045200010EE100A02B2BDEECA0A10EE100A01B275
:10453000BDEEC80A10EE100A00B203F0F3FC09B099
:10454000BDEC108BF0BD0000CC030020C4030020A4
:10455000C8030020000080460246002002EA010352
:104560000BB1012000E00020704700001FB50121C1
:10457000102003F079FE1C4804F03CFB0020ADF84D
:104580000C00ADF8060040F2E730029040F24F1008
:10459000ADF8040000208DF80E0001A9124804F0C7
:1045A00091FB0121104804F0F9FA012211460E484E
:1045B00004F017FB4FF4A06003F040FD36208DF8A7
:1045C000000001208DF8030003208DF801008DF814
:1045D0000200684603F0F6FC0121034804F0E4FA07
:1045E000FEF790FF1FBD00000010004010B52149EC
:1045F000214800F0C9F801283BD1204908701D4925
:104600001D4800F061F81E48007801280AD10122F7
:1046100010211C4801F04BF8FDF70CFA0020184956
:10462000087026E018480078012817D101221021CF
:10463000144801F03CF8FDF747F9012010490870D3
:10464000FCF70CFF002210210E4801F030F8A220E8
:104650000E4908700420FDF713F90AE00A480078B3
:10466000022806D101221146094801F020F8FDF781
:1046700087F910BD008020104064024042020020F3
:1046800058020020000002404102002030020020B9
:10469000000402400246094B9A4201D2084801E058
:1046A0000648103801F000531BB1064B0B40C360A5
:1046B00002E0044B0B40836070470000106402402E
:1046C000006002407D0F7D0F0246094B9A4201D2E5
:1046D000084801E00648103801F000531BB1064BB2
:1046E0000B40C36002E0044B0B4083607047000046
:1046F00010640240006002407D0F7D0F21B102680E
:1047000042F00102026003E0026822F0010202604E
:104710007047014600200A6802F001020AB1012038
:1047200000E0002070470146486880B270470146AB
:1047300000200A6802F400220AB1012000E00020F3
:104740007047000030B503460A46002000240B4D98
:10475000AB4201D20A4901E00849103902F0005584
:104760000DB14C6800E00C68064D2C4004EA0205CF
:104770000DB1012000E0002030BD000010640240B7
:10478000006002407D0F7D0F70B5024600200024BE
:104790000025124EB24201D2114B01E00F4B103BEB
:1047A000104E0E4036B11E2606EAD124166806EADF
:1047B000040502E0566906F0800501F000560EB1CE
:1047C0005C6800E01C68084E344004EA010616B13B
:1047D0000DB1012000E0002070BD00001064024017
:1047E000006002403C0F3C0F7D0F7D0F10B501F0C3
:1047F00080034BB122B1436943F08003436103E07E
:10480000436923F08003436180290BD02AB10368F8
:1048100001F01E042343036004E0036801F01E045A
:10482000A343036010BD000010B500220268134BC3
:104830001A40CC680B6823434C6923438C6923439B
:10484000CC6923430C6A23434C6A23438C6A234379
:104850004C6B23438C6B23431A430260426922F062
:104860000702D1E90B3423431A4342610B694360C9
:104870004B6883608B68C36010BD00003F801CF0F4
:10488000416070472DE9F0412DED028B04460D4645
:1048900028780109A4F1F10000EB8000994A02F8A0
:1048A00030109FED990AB0EE408AA878697840EA06
:1048B000012086B2E8780001297940EA2117687959
:1048C000297901F00F0140EA01281021F2EE090ACE
:1048D000BAEE090A304607F0BDFDB0EE408AA4F1F9
:1048E000F10000EB8000874901EBC00090ED040A65
:1048F00038EE400AF2EE090AB4EEE00AF1EE10FAE0
:104900001DDDA4F1F10000EB800001EBC000407858
:10491000012814D1A4F1F10000EB800001EBC000EC
:10492000D0E90210491E60F10000A4F1F10202EB8F
:104930008202744B03EBC202C2E902104AE0A4F106
:10494000F10000EB80006F4901EBC00090ED040A1C
:1049500030EE480AF2EE090AB4EEE00AF1EE10FA7F
:104960001DDDA4F1F10000EB800001EBC0004078F8
:10497000012814D1A4F1F10000EB800001EBC0008C
:10498000D0E90210491C40F10000A4F1F10202EB51
:1049900082025C4B03EBC202C2E902101AE0A4F1EE
:1049A000F10000EB8000574901EBC000407801287E
:1049B00010D0A4F1F10000EB800001EBC0004078C2
:1049C000401CC1B2A4F1F10000EB80004D4A02EBA3
:1049D000C0004170A4F1F10000EB8000494901EBF7
:1049E000C001D1E902211046FCF7ACFA00EE100A32
:1049F000B3EE091AF0EE480A41EE000AA4F1F10004
:104A000000EB80003F4901EBC000C0ED050AA4F1B6
:104A1000F10000EB800001EBC00080ED048A0C2166
:104A2000DFED3A0A9FED3A0A384607F013FDA4F18C
:104A3000F10000EB8000334901EBC00080ED070A74
:104A40000C21DFED340A9FED340A384607F002FDF1
:104A5000A4F1F10000EB80002A4901EBC00080EDD9
:104A6000060A0C21F2EE040ABAEE040A404607F0E8
:104A7000F1FCA4F1F10000EB8000224901EBC00041
:104A800080ED080AA4F1F10000EB800001EBC0000A
:104A900090ED060AA4F1F10000EB800001EBC000EC
:104AA000D0ED080A20EE200AA4F1F10000EB80000E
:104AB00001EBC00080ED090AA4F1F10000EB8000D9
:104AC00001EBC00090ED090AB5EEC00AF1EE10FA54
:104AD00013D2A4F1F10000EB800001EBC00090EDD7
:104AE000090AFFEE000A20EE200AA4F1F10000EB13
:104AF000800001EBC00080ED090ABDEC028BBDE82F
:104B0000F0810000C80C0020000000000000B4414B
:104B10000000B4C100003442000034C2704710B538
:104B2000044603E04FF47A7000F005F8201EA4F16B
:104B30000104F7D110BD0146C1EBC10202EB4202F4
:104B40004FF0E0235A6100229A611A46126942F03E
:104B500001021A6100BF4FF0E022106900F001026B
:104B60001AB100F48032002AF5D04FF0E022126929
:104B700022F001024FF0E0231A6100229A6170478F
:104B800010B5102000F08AF8012831D1102000F073
:104B90007FF81848007880B9FCF760FC00221021EB
:104BA000154800F084FD0120144908709220144932
:104BB00008700820FCF764FE1AE00E48007801280F
:104BC00016D100200B490870002210210A4800F07D
:104BD0006EFD0120094908709220094908700121E1
:104BE0000848FFF78BFD012106481830FFF786FDC6
:104BF00010BD0000400200200000024041020020E1
:104C0000300200204064024010B5202000F046F839
:104C1000012831D1202000F03BF81848007880B9F5
:104C2000FCF71CFC00220121154800F040FD022089
:104C3000144908708220144908700720FCF720FEF0
:104C40001AE00E480078012816D100200B490870A0
:104C5000002201210A4800F02AFD022009490870BB
:104C600082200949087001210848FFF747FD01210A
:104C700006481830FFF742FD10BD0000400200203A
:104C80000004024041020020300200204064024043
:104C90000149086070470000143C014001460020B3
:104CA000034A12680A400AB1012000E00020704760
:104CB000143C0140002123498279002A3AD00A4657
:104CC000126803689A430B461A600A1D126803684B
:104CD0009A430B1D1A60027911440A6803681A434B
:104CE0000A60184A0832126803689A43154B083361
:104CF0001A601A1D126803689A43124B0C331A602B
:104D00004279102A0ED11A1F126803681A430D4BFC
:104D100008331A601A1D126803681A43094B0C33D2
:104D20001A600DE00749427911440A6803681A4382
:104D30000A6005E0027911440A6803689A430A6030
:104D400070470000003C0140D2ED020A92ED021AC9
:104D5000B6EE000A00EEC10AD2ED030A92ED031A84
:104D600000EEC10AD0ED000A20EE200AD2ED010AC1
:104D700092ED021A60EE810A92ED001AD2ED031A4A
:104D800041EE210A90ED011A00EE810AD2ED010AEE
:104D900092ED031A60EE810A92ED001AD2ED021A2A
:104DA00041EE610A90ED021A00EE810AF0EE000A6F
:104DB00020EE200A81ED000A92ED010AD2ED020AEE
:104DC00020EE200AD2ED000A92ED031A00EEC10A8D
:104DD000D0ED000A60EE200A92ED011AD2ED011A20
:104DE000B6EE000A01EE610AD2ED031A92ED032A33
:104DF000B0EE401A01EEC21AD0ED011AB0EE600A10
:104E000001EE210AD2ED020A92ED031A60EE810A48
:104E100092ED001AD2ED011A41EE210A90ED021A2C
:104E200000EE810AF0EE000A20EE200A81ED010A70
:104E300092ED010AD2ED030A20EE200AD2ED000A1B
:104E400092ED021A00EE810AD0ED000A20EE200A4F
:104E5000D2ED020A92ED031A60EE810A92ED001A79
:104E6000D2ED011A41EE610A90ED011A00EE810ABD
:104E700092ED011AD2ED011AF6EE000A41EE610A36
:104E800092ED021AD2ED021A41EE610A90ED021A79
:104E900000EE810AF0EE000A20EE200A81ED020AFF
:104EA0007047000030B502460025092400F076F86E
:104EB000044602B909E0012A01D1150205E0022ADF
:104EC00001D1150201E04FF44075092C1CD10F48A7
:104ED000006820F440700D490860084600682843C7
:104EE00008600846006840F0040008600846006852
:104EF00040F48030086000F051F804460348006830
:104F000020F0040001490860204630BD103C0240FA
:104F100009201349096801F48031B1F5803F01D1BE
:104F200001201CE00E49096801F0100109B10620BA
:104F300015E00B49096801F4807109B102200EE007
:104F40000749096801F0E00109B1072007E00449B9
:104F5000096801F0020109B1082000E0092070474A
:104F60000C3C02400348006840F0004001490860E2
:104F700070470000103C02400548006800F0004007
:104F800028B1044802490C3908600348086070479A
:104F9000103C024023016745AB89EFCD08B50920DD
:104FA0000090FFF7B5FF009002E0FFF7B1FF00901F
:104FB0009DF800000128F8D09DF8000008BD000011
:104FC0002DE9F04104460D466878297840EA01262B
:104FD000A4F2052000EB4000D84901EB0010008846
:104FE000301AB0F57A6F1DDDA4F2052000EB400009
:104FF00001EB00108078012814D1A4F2052000EB09
:10500000400001EB0010D0E902305A1E60F10000B0
:10501000A4F2052101EB4101C84B03EB0111C1E9E9
:10502000022044E0A4F2052000EB4000C34901EB5C
:1050300000100088801BB0F57A6F1DDDA4F20520FA
:1050400000EB400001EB00108078012814D1A4F29D
:10505000052000EB400001EB0010D0E90210491CD4
:1050600040F10000A4F2052202EB4202B34B03EB35
:105070000212C2E902101AE0A4F2052000EB40007F
:10508000AE4901EB00108078012810D0A4F2052071
:1050900000EB400001EB00108078401CC1B2A4F28C
:1050A000052000EB4000A54A02EB00108170A4F23D
:1050B000052000EB4000A14901EB00100680A4F29E
:1050C000052000EB400001EB00104FF40057D0E941
:1050D00002310020A3FB072C01FB07C103FB0010DA
:1050E000911940F10000A4F2052202EB4202934B19
:1050F00003EB0212C2E90410A4F20520A0B900EBF0
:105100004000194601EB0010D0E9042041F6A963E4
:10511000D21A60F10000A4F2052101EB4101874B96
:1051200003EB0111C1E90420A4F20520012816D1E6
:10513000A4F2052000EB4000804901EB0010D0E90B
:10514000043040F27312991A60F10000A4F20522B3
:1051500002EB4202794B03EB0212C2E90410A4F203
:105160000520022816D1A4F2052000EB4000734967
:1051700001EB0010D0E9042041F6BA61511A60F148
:105180000000A4F2052202EB42026C4B03EB021278
:10519000C2E90410A4F20520032816D1A4F20520C8
:1051A00000EB4000654901EB0010D0E9041041F22A
:1051B0008F63C91A60F10000A4F2052202EB4202DB
:1051C0005E4B03EB0212C2E90410A4F2052000EBCF
:1051D00040005A4901EB0011D1E904211046FBF7C8
:1051E000B1FE00EE100A9FED561AC0EE010A9FEDC7
:1051F000550A20EE800AA4F2052000EB40004F493A
:1052000001EB001080ED060AE878A97840EA012059
:1052100001B2A4F2052000EB4000484A02EB001066
:105220008183A4F2052000EB4000114601EB001041
:10523000B0F91C0000EE100AB8EEC00ADFED420A19
:1052400020EE200AA4F2052000EB400001EB001044
:1052500080ED080A6879297940EA012001B2A4F2B8
:10526000052000EB400002EB00108184A979A4F234
:10527000052000EB400002EB001080F82610A4F29D
:10528000052000EB4000114601EB0010B0F91C00B6
:1052900000EE100AB8EEC00AF0EE000A20EE200A76
:1052A000DFED280A20EE200A9FED281AC0EE010A41
:1052B000A4F2052000EB400001EB0010B0F924003F
:1052C00000EE100AB8EEC00ADFED211A80EE211AB6
:1052D000B0EE080A21EE000A20EE800ADFED1D0A7A
:1052E00020EE200AA4F2052000EB400001EB0010A4
:1052F00080ED0A0AA4F2052000EB400001EB00104B
:1053000090ED0A0AB5EEC00AF1EE10FA13D2A4F23B
:10531000052000EB400001EB001090ED0A0AFFEEC3
:10532000000A20EE200AA4F2052000EB400001EB69
:10533000001080ED0A0ABDE8F0810000780B002023
:1053400000008045DA0F49404F77D63D000070429B
:10535000000080462DB23D3F2DE9F04385B0044664
:105360000D4616461F464FF4FF70009000208DF842
:1053700009008DF8080008208DF80A00200A8DF831
:105380000B00E1B28DF80C10290A8DF80D10E9B26E
:105390008DF80E10310A8DF80F10F1B28DF8101043
:1053A000390A8DF81110F9B28DF8121069460F48BC
:1053B000FDF768FA81464FF0000803E008F10100AC
:1053C0001FFA80F849460948FDF7F0FA18B940F687
:1053D000FF708045F2DB40F6FF70804503DB002064
:1053E00005B0BDE8F0830120FAE70000006400404A
:1053F0002DE9F04704460D466878297840EA0126F1
:10540000A4F2052000EB40006B4901EB001000887E
:10541000301AB0F57A6F2CDDA4F2052000EB4000C5
:1054200001EB00108078012823D1A4F2052000EBC5
:10543000400001EB00104FF0FF31D0E90223084695
:10544000891A984115DAA4F2052000EB40005A4968
:1054500001EB0010D0E90210491E60F10000A4F237
:10546000052202EB4202544B03EB0212C2E9021086
:1054700050E0A4F2052000EB40004F4901EB001082
:105480000088801BB0F57A6F29DDA4F2052000EBBF
:10549000400001EB00108078012820D1A4F2052003
:1054A00000EB400001EB0010D0E902200023D21AEB
:1054B000984114DAA4F2052000EB400001EB001043
:1054C000D0E90220511C40F10000A4F2052202EBB9
:1054D0004202394B03EB0212C2E902101AE0A4F2B5
:1054E000052000EB4000344901EB001080780128D2
:1054F00010D0A4F2052000EB400001EB00108078F2
:10550000401CC1B2A4F2052000EB40002A4A02EB85
:1055100000108170A4F2052000EB4000264901EB49
:1055200000100680A4F2052000EB400001EB001102
:10553000D1E9020C4FF400514FF00008A0FB0179B3
:105540000CFB019100FB0810BA1940EB0801104652
:10555000FBF7F8FCA4F2052101EB4101164A02EB2E
:1055600001118861E878A97840EA012000B200EED4
:10557000100AB8EEC00AA4F2052000EB4000114664
:1055800001EB001080ED080A6879297940EA0120D2
:1055900001B2A4F2052000EB400002EB0010818470
:1055A000A979A4F2052000EB400002EB001080F87E
:1055B0002610BDE8F0870000280A0020F0B50A4652
:1055C00000210023002400BF3DE0012505FA01F37E
:1055D000156805EA03049C4234D105684F00032690
:1055E000BE40B543056015794E00B54006683543A9
:1055F00005601579012D02D01579022D16D1856827
:105600004F000326BE40B543856055794E00B54036
:10561000866835438560456801268E40B543456000
:10562000456896798E40B6B235434560C5684F00EF
:105630000326BE40B543C560D5794E00B540C66867
:105640003543C560491C1029BFD3F0BDF0B5002318
:1056500000244D07ED0E02FA05F3CE1000F12005EF
:1056600055F826504E07F70E0F26BE40B543CF1013
:1056700000F1200646F82750CE1000F1200555F81D
:10568000265045EA0304CE1000F1200545F82640D7
:10569000F0BD0246002013690B400BB1012000E071
:1056A000002070470A0482617047816170470AB127
:1056B000816101E00B0483617047000070B504460E
:1056C00000202074A37B484D2D8803FB05F2616800
:1056D000D4F8F400FBF7E9FAA27B434B1B8802FBEA
:1056E00003F16068FBF7FAFAA27B3F4B1B885A4331
:1056F000A37B02FB03F1D4F81801FBF7EFFA227B3E
:10570000394B1B885A43A37B02FB03F1D4F80C01ED
:10571000FBF7E4FA002031E0D4F8F41001EB80014B
:1057200091ED000AB5EEC00AF1EE10FA24D0D4F8DB
:10573000F41001EB800191ED000A227CD4F8F41002
:1057400001EB820181ED000A227C616A8854A16923
:1057500001EB800191ED000A6169095C227B237CE9
:1057600012FB0311491ED4F80C2102EB810181EDDB
:10577000000A217C491C2174411CC8B2A17B8142D2
:10578000CADC002011E0626A125CE16901EB82016F
:1057900091ED000A227C00FB0202D4F8181101EB03
:1057A000820181ED000A411CC8B2217C8142EADC01
:1057B000207CA4F87800217B7A200153207BA4F878
:1057C0008000217C82200153207CA4F89000217C61
:1057D00092200153207BA4F89800217C9A20015349
:1057E000207CA4F8480070BD0801002000BFFEE73F
:1057F00070B52DED088B86B004460D46164694ED27
:10580000040ACA48D0ED000A30EE600AB0EEC00AC1
:10581000DFEDC70AB4EEE00AF1EE10FA22DC94EDF7
:10582000050AC448D0ED000A30EE600AB0EEC00AA6
:10583000DFEDBF0AB4EEE00AF1EE10FA12DC94EDEF
:10584000060ABD48D0ED000A30EE600AB0EEC00A8C
:10585000DFEDB70AB4EEE00AF1EE10FA02DC2078D0
:1058600000287DD094ED040ADFEDB40A80EE201A02
:10587000B0EE41BAB0EE4B0AFAF7A4FCF0EE408A63
:1058800094ED050ADFEDAD0A80EE201AB0EE41BAC4
:10589000B0EE4B0AFAF796FCF0EE40AA94ED060A39
:1058A000DFEDA60A80EE201AB0EE41BAB0EE4B0A48
:1058B000FAF788FCB0EE409A94ED040ADFED9F0AF7
:1058C00080EE201AB0EE41BAB0EE4B0AFAF7B6FC01
:1058D000B0EE40AA94ED050ADFED980A80EE201A9A
:1058E000B0EE41BAB0EE4B0AFAF7A8FCF0EE409ADF
:1058F00094ED060ADFED910A80EE201AB0EE41BA6F
:10590000B0EE4B0AFAF79AFCB0EE408A68EE890ACC
:105910002AEE291AB0EE480A41EE000A8848C0ED86
:10592000000A2AEE8A0A874880ED000AB0EE480A8B
:1059300028EE800A69EE0A0A00EEE90A824880ED44
:10594000000A68EEA90AB0EE480A20EE800A09EEC5
:105950004A0A7E4880ED000A28EEAA0A7C4800E048
:1059600021E080ED000AF1EE4A0AB0EE480A20EE8E
:10597000800A68EE890A00EEE90A764880ED000A9E
:10598000F1EE6A0AB0EE480A20EE800A724880ED15
:10599000000A7248C0ED009A2AEE890A704880ED2C
:1059A000000A00202070002011E005EB800191ED3D
:1059B000000A211D01EB8001D1ED000A20EE200A32
:1059C00003A901EB800181ED000A411CC8B2032844
:1059D000EBDB9DED030A5A48D0ED000A20EE200AC9
:1059E000DDED040A574890ED001A01EE200ADDEDC6
:1059F000050A554890ED001A01EE200A85ED000ACF
:105A00009DED030A5148D0ED000A20EE200ADDED9D
:105A1000040A4F4890ED001A01EE200ADDED050A58
:105A20004C4890ED001A01EE200A85ED010A9DED2B
:105A3000030A4948D0ED000A20EE200ADDED040AF1
:105A4000464890ED001A01EE200ADDED050A4448B3
:105A500090ED001A01EE200A85ED020A00200AE00E
:105A600006EB800191ED000A694601EB800181EDB2
:105A7000000A411CC8B20328F2DB9DED000A304841
:105A8000D0ED000A20EE200ADDED010A2D4890ED50
:105A9000001A01EE200ADDED020A2B4890ED001AF3
:105AA00001EE200A86ED000A9DED000A2748D0EDA0
:105AB000000A20EE200ADDED010A254890ED001ACB
:105AC00001EE200ADDED020A224890ED001A01EEF7
:105AD000200A86ED010A9DED000A1F48D0ED000A5C
