:020000040800F2
:1000000000AB0020C1A70008350300083703000833
:100010003B0300083F030008430300080000000002
:10002000000000000000000000000000470300087E
:100030004903000800000000AF78010845D500081A
:10004000DBA70008DBA70008DBA70008DBA7000888
:10005000DBA70008DBA70008DBA70008DBA7000878
:10006000DBA70008DBA70008DBA70008DBA7000868
:1000700037DD0008DBA70008DBA70008DBA70008C6
:10008000DBA70008DBA70008DBA70008DBA7000848
:1000900081930008DBA70008DBA70008DBA70008A6
:1000A000DBA70008DBA70008DBA70008DBA7000828
:1000B000DBA70008DBA70008DBA70008DBA7000818
:1000C000DBA70008DBA70008DBA70008DBA7000808
:1000D000DBA70008EBD70008EFDB000897DD00087E
:1000E000DBA70008DBA70008DBA70008DBA70008E8
:1000F000DBA70008DBA700089F900008DBA700082B
:10010000DBA70008DBA70008DBA70008DBA70008C7
:10011000DBA70008DBA70008DBA70008579D000845
:10012000DBA70008DBA70008DBA70008DBA70008A7
:10013000DBA70008DBA70008DBA70008DBA7000897
:10014000CB990008DBA70008DBA70008DBA70008A5
:10015000DBA70008DBA70008DBA70008CDD9000853
:10016000DBA70008DBA70008DBA70008DBA7000867
:10017000DBA70008DBA70008DBA70008DBA7000857
:10018000DBA70008DBA7000800F002F800F04CF83D
:100190000AA090E8000C82448344AAF10107DA45E2
:1001A00001D100F041F8AFF2090EBAE80F0013F0E8
:1001B000010F18BFFB1A43F0010318470C9501000B
:1001C0002C9501000A4410F8014B14F00F0508BFEC
:1001D00010F8015B240908BF10F8014B6D1E05D013
:1001E00010F8013B6D1E01F8013BF9D1641E03D0EC
:1001F000641E01F8015BFBD19142E4D3704700001B
:100200000023002400250026103A28BF78C1FBD81F
:10021000520728BF30C148BF0B6070471FB518F0A8
:10022000B2FF1FBD10B510BD17F0E4FA1146FFF77D
:10023000F5FF00F009F817F016FB03B4FFF7F2FF23
:1002400003BC0DF011FA00008AB0002408F09BFDF9
:1002500009A80FF023FD00BF00BF00BF0EF084F817
:10026000044600BF00BF2B480078401C2949087095
:1002700000BF00BF20460EF07BF800BF00BF00BFEC
:1002800009A8032100220592CDE906210890104615
:100290004FF400713322204BCDE90132CDE9031038
:1002A000072000231D4A1EA10090204814F04CFA9C
:1002B00000BF00BF00BF0EF057F8044600BF00BFEC
:1002C00014480078401E1349087008460078A0B909
:1002D00017480088002809DD00BF00BF20460EF047
:1002E00047F800BF00BF10F0CFFA0DE000BF00BF1D
:1002F00020460EF03DF800BF06E000BF00BF2046DC
:100300000EF036F800BF00BF00BF09A80FF073FF62
:1003100000BFFEE79C0600206C0F00205D05000872
:100320007374617274207461736B000000070020A5
:1003300060060020704700BFFEE700BFFEE700BF79
:10034000FEE700BFFEE77047704700000CB50020D5
:10035000019000907648006840F48030744908604D
:1003600000BF7348006800F4003000900198401C02
:100370000190009818B90198B0F5A04FF1D16C48E0
:10038000006800F4003010B10120009001E000206E
:1003900000900098012846D165484030006840F040
:1003A00080506349403108606248006840F4404032
:1003B000604908605E48083000685D49083108609F
:1003C0000846006840F4004008600846006840F4B1
:1003D000A05008605848091F0860081F006840F0D6
:1003E0008070091F086000BF5148006800F000706D
:1003F0000028F9D040F20570504908604C48083098
:10040000006820F003004A49083108600846006887
:1004100040F00200086000BF45480830006800F066
:100420000C000828F8D10CBD10B54548006840F410
:100430007000434908603E48006840F001003C49B4
:10044000086000203A4908310860394800683D4991
:100450000840374908603C48091D0860081F0068CB
:1004600020F48020091F0860002031490C31086009
:10047000FFF76CFF4FF0006031498039086010BD14
:1004800070B500200022022300240221284D0835E7
:100490002D6805F00C0020B1042806D0082834D1BE
:1004A00007E02A4D2A4E356033E02A4D284E35604C
:1004B0002FE01F4D2D1D2D68C5F380541C4D2D1DA3
:1004C0002D6805F03F0154B1224DB5FBF1F5184EF2
:1004D000361D3668C6F3881605FB06F209E01B4D8B
:1004E000B5FBF1F5124E361D3668C6F3881605FBCE
:1004F00006F20F4D2D1D2D68C5F301456D1C6B00D7
:10050000B2FBF3F5124E356003E0104D104E35602E
:1005100000BF00BF064D08352D68C5F303150E4E0C
:10052000705D0B4D2D68C540094E356070BD0000F3
:1005300000380240007000400C5A4007003C024066
:1005400088ED00E0FFFFF6FE103000240024F400E8
:1005500000000020001BB7000400002030B58BB065
:100560000446002500BF0DF0C7FD0AA813F015FDD5
:100570000AAA012108460FF09EFD00BF00BF00BF80
:100580000DF0F2FE054600BF00BF9C480078401CFD
:100590009A49087000BF00BF28460DF0E9FE00BF71
:1005A00000BF00BF0AAB012295A1974813F069F87C
:1005B0000AA80021954A0223CDE90032CDE90210B4
:1005C0006423142292A1944816F097FA0AA80321F2
:1005D00000220592CDE90621089010464FF40071E3
:1005E00033228E4BCDE90132CDE9031004200023E4
:1005F0008B4A8CA100908F4814F0A6F80AA803211A
:1006000000220592CDE90621089010464FF40071B2
:100610003322894BCDE90132CDE9031007200023B5
:10062000864A87A100908A4814F08EF80AA8032110
:1006300000220592CDE90621089010464FF4007182
:100640003322844BCDE90132CDE903100120002390
:10065000814A82A10090894814F076F80AA8032103
:1006600000220592CDE90621089010464FF4007152
:100670003322834BCDE90132CDE90310062000235C
:10068000804A81A10090874814F05EF80AA80321EF
:1006900000220592CDE90621089010464FF4007122
:1006A0003322814BCDE90132CDE903100420002330
:1006B0007E4A7FA10090814814F046F80AA80321E1
:1006C00000220592CDE90621089010464FF40071F2
:1006D00033227B4BCDE90132CDE903100420002306
:1006E000784A79A100907D4814F02EF80AA80321D9
:1006F00000220592CDE90621089010464FF40071C2
:100700003322774BCDE90132CDE9031002200023DB
:10071000744A75A10090774814F016F80AA80321CE
:1007200000220592CDE90621089010464FF4007191
:100730003322714BCDE90132CDE9031003200023B0
:100740006E4A6FA10090734813F0FEFF0AA80321C0
:1007500000220592CDE90621089010464FF4007161
:1007600033226D4BCDE90132CDE903100320002384
:100770006A4A6BA100906F4813F0E6FF0AA9264869
:1007800016F099FB0AA96C4815F0F7FB00BF00BFF3
:1007900000BF0DF0E9FD054600BF00BF1748007817
:1007A000401E1649087008460078A0B963480088C2
:1007B000002809DD00BF00BF28460DF0D9FD00BFAD
:1007C00000BF10F061F80DE000BF00BF28460DF03B
:1007D000CFFD00BF06E000BF00BF28460DF0C8FDFA
:1007E00000BF00BF00BF0BB030BD08B56B46032291
:1007F00053A1574810F0C9F908BD00009C0600201D
:100800004D595F53454D0000985F00205509000881
:10081000746D723100000000EC5F00207027002032
:10082000995400087374617465205465737420745E
:1008300061736B00C4070020703F00202B7000081C
:1008400043414E2073656E64207461736B00000039
:10085000D40A0020702F0020C14B000852656D6F34
:10086000746520636F6E74726F6C2070726F746544
:100870006374696F6E207461736B000088080020D8
:1008800070470020CB6700084672696374696F6E19
:1008900020576865656C204B656570207461736BCB
:1008A00000000000980B0020704F00208D570008BA
:1008B000466C69636B207461736B00005C0C0020F4
:1008C000705700204D70000852656665726565209E
:1008D00073797374656D207461736B00200D002053
:1008E00070370020C319000847696D62616C20747D
:1008F00061736B004C090020701700206F4A0008DC
:1009000063686173736973207465737420746173B1
:100910006B000000100A0020701F0020C780000834
:10092000526F735F436F6E74726F6C5F5461736B61
:1009300000000000A80E0020000700206006002034
:100940004B65794576656E7420466C61677300006F
:10095000705F0020024A1278521C014B1A707047D7
:1009600014000020FE480068FE490968401A00EEA5
:10097000100AB8EEC00AFC4880ED000AFB4890ED72
:10098000000AF948D0ED000A30EE200AF74880ED61
:10099000000AF74890ED000AF348D0ED000A20EE77
:1009A000200ABDEEC00AF34880ED000A0068B0F5E9
:1009B000C87F03DB4FF4C870EE490860ED4800685B
:1009C00010F5C87F02DCEC48EA490860E94890ED80
:1009D000000AB8EEC00AE948D0ED000AE34890EDFD
:1009E000001A00EE810AE048D0ED000AE44890EDDC
:1009F000001A70EEC10AE34890ED001A01EE200AD9
:100A0000BDEEC00AE04880ED000AD74890ED000A2C
:100A1000DB4880ED000ADC4800687047DB4800686E
:100A2000DB490968401A00EE100AB8EEC00AD9483E
:100A300080ED000AD84890ED000AD648D0ED000AB3
:100A400030EE200AD44880ED000AD44890ED000A28
:100A5000D048D0ED000A20EE200AD148D0ED000A9F
:100A6000CD4890ED001A00EE810ACA48D0ED000A88
:100A7000CC4890ED001A70EEC10ACB4890ED001AF8
:100A800001EE200ABDEEC00AC84880ED000AC14848
:100A900090ED000AC34880ED000AC4480068704722
:100AA00010B52DED088B82B0C148007801287DD1AA
:100AB000C04800780128FAD1A948006810B9B348A5
:100AC0000068A8B1FFF74EFF6FF0090100FB01F4C9
:100AD000204617F03AFFB84A03C2FFF79FFF6FF0B6
:100AE000090100FB01F4204617F02FFFB34A03C2AF
:100AF000B348007800280DDDB1480078012809DCF2
:100B00009FEDB00BAC4880ED000B9FEDAE0BAB48FA
:100B100080ED000BAD49886817F017FF41EC190B09
:100B2000A54890ED000B53EC102B51EC190B18F06D
:100B3000F7F841EC180B9FEDA60B53EC102B17F0B8
:100B4000C9FCA54A03C2A149086817F0FEFE41ECA2
:100B5000190B9A4890ED000B53EC102B51EC190B2C
:100B600018F0DEF841EC180B9FED9C0B53EC102BAA
:100B700018F0AEF99B4A03C29449886817F0E5FE65
:100B8000994A03C29149086817F0DFFE974A03C2E9
:100B90009FED970B53EC102B8F4890ED000B51EC11
:100BA000100B17F089FF41EC180B00E00AE29248A5
:100BB00090ED000B53EC102B51EC180B17F08AFC46
:100BC0008D4A03C29FED8D0B53EC102B854890EDA1
:100BD000000B51EC100B17F06FFF41EC180B89481C
:100BE00090ED000B53EC102B51EC180B17F072FC2E
:100BF000844A03C29FED840B53EC102B7E4890ED8A
:100C0000000B51EC100B18F055F804D29FED7E0B41
:100C1000794880ED000B9FED7E0B53EC102B76484E
:100C200090ED000B51EC100B17F00AFF04D29FED72
:100C3000780B714880ED000B9FED770B53EC102B78
:100C4000654890ED000B51EC100B18F033F804D20E
:100C50009FED5C0B684880ED000B9FED710B53EC32
:100C6000102B5D4890ED000B51EC100B17F0E8FED7
:100C700004D29FED540B604880ED000B9FED620B9A
:100C800053EC102B5F4890ED000B51EC100B18F05B
:100C900011F804D29FED5C0B5A4880ED000B9FEDDC
:100CA0005C0B53EC102B574890ED000B51EC100BE4
:100CB00017F0C6FE04D29FED560B524880ED000B94
:100CC0009FED550B53EC102B464890ED000B51EC6B
:100CD000100B17F0EFFF04D29FED3A0B494880ED5F
:100CE000000B9FED4F0B53EC102B3E4890ED000B8B
:100CF00051EC100B17F0A4FE04D29FED320B4148CB
:100D000080ED000B484890ED000B53EC102B36485B
:100D100090ED000B51EC100B18F0DAF841EC1A0BC7
:100D20009FED420B53EC102B17F0C6FE41EC180B55
:100D30009FED400B53EC102B2F4890ED000B51EC26
:100D4000100B17F0B9FE41EC1A0B9FED3C0B53EC66
:100D5000102B214890ED000B51EC100B72E00000BD
:100D60002406002004010020D8000020D400002028
:100D7000C80000202401002070FEFFFFCC000020EE
:100D8000DC000020D0000020E00000202806002029
:100D90000C010020F4000020F0000020E4000020FE
:100DA000E8000020F8000020EC000020FC000020FB
:100DB0001001002011010020A0000020A800002048
:100DC0001201002000000000000000003C62002032
:100DD0004182E2C7987B1E4080000020C520B0728F
:100DE00068910A4088000020300000204800002060
:100DF00014AE47E17A14FE3F20000020E17A14AEE1
:100E000047E1F23F4000002000000000C087D340CF
:100E100000000000C087D3C0000000008087C340EE
:100E2000000000008087C3C03800002000000000E0
:100E300000000440B81E85EB51B8BE3F0000000022
:100E40000000314017F038FE41EC1B0B53EC1A2B1D
:100E500017F040FB41EC190B53EC182B18F038F845
:100E6000FE4A03C2FE4890ED000B53EC102BFD48E8
:100E700090ED000B51EC100B18F02AF841EC1A0B16
:100E80009FEDF90B53EC102B17F016FE41EC180BED
:100E90009FEDF70B53EC102BF74890ED000B51EC46
:100EA000100B17F009FE41EC1A0B9FEDF40B53ECFD
:100EB000102BF44890ED000B51EC100B17F0FCFDDB
:100EC00041EC1B0B53EC1A2B17F004FB41EC190BF4
:100ED00053EC182B17F0FCFFEB4A03C2EB490868F0
:100EE00017F033FDDE4A03C2E849886817F02DFD8C
:100EF000E74A03C29FEDE70B53EC102BD74890ED68
:100F0000000B51EC100B17F0D5FE04D29FEDE10B56
:100F1000D24880ED000B9FEDE10B53EC102BCF4836
:100F200090ED000B51EC100B17F08AFD04D29FEDF1
:100F3000DB0BCA4880ED000B9FEDD60B53EC102B5A
:100F4000D14890ED000B51EC100B17F0B3FE04D21A
:100F50009FEDD00BCC4880ED000B9FEDD00B53ECF8
:100F6000102BC94890ED000B51EC100B17F068FDE9
:100F700004D29FEDCA0BC44880ED000BC24890ED2F
:100F8000000B51EC100B17F0B1FC04460020009050
:100F9000034622460821019040F2FF1005F008FFA9
:100FA000AE4890ED000B51EC100B17F09FFC04467F
:100FB00000200090034622460821019040F2FF20C5
:100FC00005F0C7FEB748007801287DD1B648007803
:100FD0000028FAD140F67460B449086041F29410D8
:100FE000B34908604FF49670B2490860B248B0F94E
:100FF0000000AF490968884203DB0220AF4908704E
:1010000009E0AD48B0F90000A8490968884202DC4F
:101010000120AA490870A9480078012803D1A548F1
:101020000068A7490860A5480078022804D1A148B3
:1010300000684042A2490860A2480078A0B9A248CE
:10104000D0ED000A9FEDA11ABAEE000A01EE200AC7
:1010500010EE101A084618F025F89D4A03C21FED3D
:10106000A70B9C4880ED000B9648007801280AD118
:101070001FEDAC0B964880ED000B9148006817F00F
:1010800064FC944A03C28149886817F05EFC41EC15
:10109000190B8F4890ED000B53EC102B51EC190BF2
:1010A00017F03EFE41EC180B1FEDB70B53EC102B65
:1010B00017F010FA884A03C27449086817F045FC13
:1010C00041EC190B834800E00BE290ED000B53EC70
:1010D000102B51EC190B17F023FE41EC180B1FEDF0
:1010E000C10B53EC102B17F0F3FE664A03C267499D
:1010F000886817F02AFC794A03C26449086817F027
:1011000024FC584A03C21FEDC60B53EC102B724847
:1011100090ED000B51EC100B17F0CEFC41EC180BCE
:101120006F4890ED000B53EC102B51EC180B17F09F
:10113000D1F96B4A03C21FEDCF0B53EC102B514872
:1011400090ED000B51EC100B17F0B6FC41EC180BB6
:10115000494890ED000B53EC102B51EC180B17F095
:10116000B9F9454A03C21FEDD80B53EC102B5C486C
:1011700090ED000B51EC100B17F09CFD04D21FED0D
:10118000DE0B574880ED000B1FEDDF0B53EC102BEF
:10119000534890ED000B51EC100B17F051FC04D2AA
:1011A0001FEDE50B4E4880ED000B1FEDE50B53ECFA
:1011B000102B494890ED000B51EC100B17F07AFD05
:1011C00004D29FED480B464880ED000B1FEDEC0B61
:1011D00053EC102B404890ED000B51EC100B17F026
:1011E0002FFC04D29FED3F0B3D4880ED000B1FED1F
:1011F000FA0B53EC102B204890ED000B51EC100B28
:1012000017F058FD04D29FED390B1B4880ED000B01
:101210009FED380B53EC102B174890ED000B51EC61
:10122000100B17F00DFC04D29FED320B124880ED2D
:10123000000B9FED320B53EC102B124890ED000B7E
:1012400051EC100B17F036FD04D29FED260B0A4827
:1012500080ED000B9FED2B0B58E0000058000020A4
:101260005000002048000020000000000000004066
:101270007B14AE47E17AD43F40000020000000001C
:101280000000304088000020600000203C62002008
:101290003800002000000000C04BDD4000000000CE
:1012A000C04BDDC0100100201101002028010020EA
:1012B0002C010020300100201805002034010020FE
:1012C0000001002022010020B801002000005C4441
:1012D000A0000020A8000020800000203000002096
:1012E00020000020000000000000000000000000BE
:1012F000C087D34000000000C087D3C000000000BA
:101300008087C340000000008087C3C053EC102BCF
:10131000FE4890ED000B51EC100B17F091FB04D23E
:101320001FED100BFA4880ED000BFA4890ED000B12
:1013300053EC102BF84890ED000B51EC100B17F00C
:10134000C7FD41EC1A0B9FEDF50B53EC102B17F07A
:10135000B3FB41EC180B1FED370B53EC102BF1488E
:1013600090ED000B51EC100B17F0A6FB41EC1A0BA3
:10137000ED4890ED000B53EC102B51EC1A0B17F0CD
:10138000A9F841EC190B53EC182B17F0A1FDE74A13
:1013900003C2E74890ED000B53EC102BE54890EDAD
:1013A000000B51EC100B17F093FD41EC1A0B9FED65
:1013B000E20B53EC102B17F07FFB41EC190B1FEDE8
:1013C000510B53EC102BD14890ED000B51EC100B4E
:1013D00017F072FB41EC1A0BCD4890ED000B53EC6B
:1013E000102B51EC1A0B17F075F841EC180B53EC5D
:1013F000192B17F06DFDD24A03C2D249086817F0C5
:10140000A4FACB4A03C2CF49886817F09EFAC14AB2
:1014100003C21FED600B53EC102BC44890ED000B82
:1014200051EC100B17F046FC04D21FED660BBF48C1
:1014300080ED000B1FED670B53EC102BBB4890EDBC
:10144000000B51EC100B17F0FBFA04D21FED6D0BE3
:10145000B64880ED000B1FED710B53EC102BB84814
:1014600090ED000B51EC100B17F024FC04D21FED93
:10147000770BB34880ED000B1FED780B53EC102B6E
:10148000AF4890ED000B51EC100B17F0D9FA04D2D5
:101490001FED7E0BAA4880ED000BA94890ED000BD4
:1014A00051EC100B17F022FA04460020009003467E
:1014B00022460821019040F2FF1005F079FC9B487C
:1014C00090ED000B51EC100B17F010FA04460020C1
:1014D0000090034622460821019040F2FF2005F0CB
:1014E00038FC9948007800287ED198490988C1F5D0
:1014F0008061C80017F029FA954A03C293494988C8
:10150000A1F58061C80017F020FA924A03C28D4904
:101510008968914A1278881817F017FA41EC190B6C
:101520008B4890ED000B53EC102B51EC190B17F07E
:10153000F7FB41EC180B9FED890B53EC102B16F0C9
:10154000C9FF784A03C27F49086817F0FEF941ECE9
:10155000190B804890ED000B53EC102B51EC190B3C
:1015600017F0DEFB41EC180B9FED7E0B53EC102BBC
:1015700017F0AEFC654A03C272498968764A127850
:10158000881817F0E2F9644A03C26E49086817F038
:10159000DCF9684A03C29FED750B53EC102B6148D0
:1015A00090ED000B51EC100B17F086FA41EC180B84
:1015B0005D4890ED000B53EC102B51EC180B16F01E
:1015C00089FF594A03C29FED690B53EC102B4F481A
:1015D00090ED000B51EC100B17F06EFA41EC180B6C
:1015E0004B4890ED000B00E0A7E153EC102B51ECC1
:1015F000180B16F06FFF464A03C21FEDC40B53ECE5
:10160000102B494890ED000B51EC100B17F052FBDA
:1016100004D21FEDCA0B444880ED000B1FEDCB0B2D
:1016200053EC102B404890ED000B51EC100B17F0D1
:1016300007FA04D21FEDD10B3B4880ED000B1FEDE4
:10164000D10B53EC102B374890ED000B51EC100BE5
:1016500017F030FB04D21FEDDD0B334880ED000B9B
:101660001FEDD80B53EC102B2E4890ED000B51ECD6
:10167000100B17F0E5F904D21FEDE60B2A4880EDB8
:10168000000B1FEDE60B53EC102B214890ED000BE7
:1016900051EC100B17F00EFB04D21FEDEC0B1C48A5
:1016A00080ED000B1FEDED0B53EC102B184890ED67
:1016B000000B51EC100B17F0C3F904D21FEDF30B24
:1016C000134880ED000B1FEDF30B53EC102B0F486C
:1016D00090ED000B51EC100B17F0ECFA04D29FEDDB
:1016E000250B0B4880ED000B1FEDFA0B53EC102B74
:1016F000064890ED000B51EC100B17F0A1F904D245
:101700009FED1C0B024880ED000B37E088000020A5
:1017100040000020380000203000002000000000C1
:101720000000F83F8000002020000020580000202A
:101730005000002048000020000000000000F03FA2
:10174000600000203C62002010010020A2840020E4
:10175000A0000020A8000020130100204182E2C761
:10176000987B1E40C520B07268910A40E17A14AEA1
:1017700047E1F23F0000000000000000AA4890EDA1
:10178000000B53EC102BA94890ED000B51EC100B03
:1017900017F09EFB41EC1A0B9FEDA50B53EC102BA1
:1017A00017F08AF941EC180B9FEDA30B53EC102BAB
:1017B000A34890ED000B51EC100B17F07DF941ECB4
:1017C0001A0BA04890ED000B53EC102B51EC1A0BA8
:1017D00016F080FE41EC190B53EC182B17F078FB38
:1017E000994A03C2994890ED000B53EC102B98488E
:1017F00090ED000B51EC100B17F06AFB41EC1A0B4B
:101800009FED940B53EC102B17F056F941EC180B8D
:101810009FED890B53EC102B904890ED000B51EC91
:10182000100B17F049F941EC1A0B8D4890ED000BA5
:1018300053EC102B51EC1A0B16F04CFE41EC190B2B
:1018400053EC182B17F044FB864A03C286490868FC
:1018500017F07BF87D4A03C283498968834A12786E
:10186000881817F072F8704A03C29FED810B53EC91
:10187000102B754890ED000B51EC100B17F01AFA75
:1018800004D29FED7B0B704880ED000B9FED7A0B2F
:1018900053EC102B6C4890ED000B51EC100B17F033
:1018A000CFF804D29FED740B674880ED000B9FEDDD
:1018B000700B53EC102B6B4890ED000B51EC100BA0
:1018C00017F0F8F904D29FED6A0B664880ED000B23
:1018D0009FED690B53EC102B624890ED000B51EC1F
:1018E000100B17F0ADF804D29FED630B5D4880ED4F
:1018F000000B5C4890ED000B51EC100B16F0F6FF5E
:10190000044600200090034622460821019040F240
:10191000FF1005F04DFA4C4890ED000B51EC100B08
:1019200016F0E4FF044600200090034622460821FA
:10193000019040F2FF2005F00CFA02B0BDEC088BDC
:1019400010BD10B59FED4E0B4F4880ED000BFFF71B
:1019500065F8404200EB8004204616F0F6FF4B4A43
:1019600003C210BD4A48007801280DD149480078CB
:10197000032802DA01204849087046480078032805
:1019800002DB002044490870704710B5431CD8B2F0
:10199000424B1B681944072804DD072391FBF3F22F
:1019A000002100203D4B1B68062B05DC3C4B1B68CF
:1019B0005B1D3C4C236003E0394B1B68394C2360B2
:1019C00010BD0EB500BF38A015F0C2FE2BE0FFF72A
:1019D000DCFFFFF7C7FF3848407A032802D1FFF742
:1019E0005FF817E03448407A012802D1FFF758F831
:1019F00010E03148407A022802D1FFF751F809E09F
:101A000000200090034602460821019040F2FF109A
:101A100005F09FF902A8002102230A46CDE9001033
:101A2000084614F02CFED2E73800002030000020D9
:101A3000333333333333F33F0000000000003240D0
:101A400080000020200000205800002050000020CE
:101A5000480000209A9999999999C93F88000020D7
:101A600040000020600000203C62002013010020A4
:101A700000000000C04BDD4000000000C04BDDC096
:101A80000000000000C07240A0000020A80000205C
:101A90001001002012010020110100202C0600205E
:101AA000080100200C010020D4C6CCA8C8CECEF17D
:101AB00020BFAACABC0D0A00A2840020FE4890EDF7
:101AC000000AFE48D0ED000A30EE600AFC48D0ED76
:101AD000000AFC4890ED001A00EEC10AFA4880EDB9
:101AE000000AF54890ED000AF448D0ED000A30EE07
:101AF000200AF348D0ED000AF24890ED001A00EEFB
:101B0000C10AF24880ED000AEB4890ED000AEB486C
:101B1000D0ED000A30EE600AE948D0ED000AE9484D
:101B200090ED001A10EEC10AE94880ED000AE24883
:101B300090ED000AE148D0ED000A30EE200AE048BE
:101B4000D0ED000ADF4890ED001A10EEC10AE1481E
:101B500080ED000AE04890ED000AF0EE000A20EE69
:101B6000200ADE48D0ED000A20EE200AD648D0ED4B
:101B7000000A80EE801A80ED001AD74890ED000A26
:101B8000F0EE000A20EE200AD448D0ED000A20EE44
:101B9000200ACE48D0ED000A80EE801A80ED001AAF
:101BA000CD4890ED000AF0EE000A20EE200ACB4866
:101BB000D0ED000A20EE200AC548D0ED000A80EEE4
:101BC000801A80ED001AC44890ED000AF0EE000A79
:101BD00020EE200AC148D0ED000A20EE200ABD48C0
:101BE000D0ED000A80EE801A80ED001AB64890ED24
:101BF000000ABB48D0ED000A20EE200ADFEDB90A4A
:101C000020EE200AB04880ED000AB04890ED000AAE
:101C1000B348D0ED000A20EE200ADFEDB20A20EE34
:101C2000200AAA4880ED000AA94890ED000AAC48B5
:101C3000D0ED000A20EE200ADFEDAA0A20EE200AED
:101C4000A34880ED000AA34890ED000AA448D0ED17
:101C5000000A20EE200ADFEDA30A20EE200A9D48AC
:101C600080ED000A7047A048B0F9000000EE100AAD
:101C7000B8EEC00A9D4880ED000A9B48B0F9060006
:101C800000EE100AB8EEC00A994880ED000A9648A6
:101C9000B0F9040000EE100AB8EEC00A954880EDD5
:101CA000000A9148B0F9020000EE100AB8EEC00A2E
:101CB000914880ED000A8A4890ED000ADFED890A1C
:101CC00020EE200A8948D0ED000A80EE801A80EDCF
:101CD000001A834890ED000ADFED820A20EE200A08
:101CE0008348D0ED000A80EE801A80ED001A7C480F
:101CF00090ED000ADFED7B0A20EE200A7D48D0ED52
:101D0000000A80EE801A80ED001A754890ED000AF6
:101D1000DFED740A20EE200A7748D0ED000A80EE4D
:101D2000801A80ED001A6C4890ED000AF0EE000A6F
:101D300020EE200A6948D0ED000A20EE200A6B4808
:101D4000D0ED000A20EE200A80ED000A624890EDF6
:101D5000000AF0EE000A20EE200A6048D0ED000AEA
:101D600020EE200A6248D0ED000A20EE200A80ED25
:101D7000000A594890ED000AF0EE000A20EE200A11
:101D80005648D0ED000A20EE200A5A48D0ED000A4D
:101D900020EE200A80ED000A4F4890ED000AF0EE98
:101DA000000A20EE200A4D48D0ED000A20EE200A5D
:101DB0005148D0ED000A20EE200A80ED000A4B4881
:101DC00090ED000A4A48D0ED000A30EE200A49485A
:101DD000D0ED000A30EE600A4748D0ED000A30EE40
:101DE000600AF1EE000A80EE201A444880ED001AE5
:101DF0003E4890ED000A3E48D0ED000A30EE200A41
:101E00003C48D0ED000A30EE600A3B48D0ED000AB5
:101E100030EE600AF1EE000A80EE201A374880EDBD
:101E2000001A334890ED000A3048D0ED000A30EE39
:101E3000600A3148D0ED000A30EE600A2D48D0ED3E
:101E4000000A30EE200AF1EE000A80EE201A2C483B
:101E500080ED001A254890ED000A2548D0ED000AD3
:101E600030EE200A2348D0ED000A30EE200A224846
:101E7000D0ED000A30EE200A1148D0ED000AB9EE8C
:101E8000001A60EE810A80EE201A1E4880ED001ACA
:101E9000704710B52DED108B82B00446B0EE408A2D
:101EA000194890ED000AF0EE408A1848C08800EE0C
:101EB000100AB8EE400A2BE0B0010020B401002067
:101EC000AC010020B8010020BC010020C0010020AE
:101ED000C4010020C8010020A0010020A4010020AE
:101EE000A80100200000704258050020D801002001
:101EF000DC010020E0010020E4010020CC010020F2
:101F0000D0010020D4010020E0040020A2840020A1
:101F1000FE4880ED000AFE48808800EE100AB8EE08
:101F2000400AFA4880ED010A90ED000ADFEDF90A57
:101F300030EE600A20EE280A10EE101A084617F05C
:101F4000B1F841EC190BF14890ED010ADFEDF10A0F
:101F500030EE600A20EE280A10EE101A084617F03C
:101F6000A1F841EC1A0BEC484088204400B2EA4941
:101F700048800846B0F90200B0F5005F06DB08466D
:101F80004088A0F5F850FF3800B24880E048808EC5
:101F9000A0F5806000EE100AB8EEC00A38EE400AE4
:101FA000B1EE400ADD4880ED000A9FEDDD0ADD4814
:101FB00080ED000ADC49B1F9020016F0C6FC41ECE4
:101FC0001C0B9FEDDA0B53EC102B16F075FD41EC5A
:101FD0001B0B16F04DFA00EE100AD64880680A2155
:101FE00090FBF1F000EE900AF8EEE00A30EE600AA5
:101FF000D14880ED000A90ED000AD04880ED000A3B
:1020000090ED000ADFEDCE0A20EE200ACD48D0ED9B
:10201000000A9FEDCD1A00EE810AC74880ED000A44
:1020200090ED000AC74880ED000ABC4890ED000A18
:10203000C148D0ED000A30EE600AC44880ED000AC5
:1020400090ED000AB5EEC00AF1EE10FA21DD90ED38
:10205000000AB448D0ED000AB4EEE00AF1EE10FA3E
:102060000BDDB54890ED000AAE48D0ED000A30EE29
:10207000200AAA4880ED000A2FE0AF4890ED000A40
:10208000B248D0ED000A30EE200AA44880ED000AE4
:1020900023E0AE4890ED000AA248D0ED000AF1EE30
:1020A000600AB4EEE00AF1EE10FA0BD2A24890ED0D
:1020B000000A9C48D0ED000A30EE600A974880ED97
:1020C000000A0AE09C4890ED000AA048D0ED000A02
:1020D00030EE200A914880ED000A8F49B1F90210D4
:1020E00041F6FF72501A16F030FC41EC1E0B9FEDCA
:1020F000980B53EC102B16F0A1FA41EC1D0B9FED41
:10210000960B53EC102B16F0D7FC41EC1C0B9FEDFB
:10211000940B53EC102B16F091FA41EC1B0B16F0BC
:10212000A7F9914908600846006816F0BBFF41EC2A
:102130001E0BB0EE4E0AF0EE6E0A15F00DFCB0EE7E
:1021400040DAF0EE60DA53EC1A2B51EC1D0B16F06E
:10215000B3FC41EC1C0B8448006816F0A3FF41EC73
:102160001E0BB0EE4E0AF0EE6E0A15F0B1FCB0EEAA
:1021700040DAF0EE60DA53EC192B51EC1D0B16F03F
:102180009BFC41EC1F0B53EC1C2B16F0A3F941EC0C
:102190001B0B16F06DF9754908607348006816F05E
:1021A00081FF41EC1E0BB0EE4E0AF0EE6E0A15F008
:1021B0008FFCB0EE40DAF0EE60DA53EC1A2B51EC03
:1021C0001D0B16F079FC41EC1B0B6748006816F0FC
:1021D00069FF41EC1E0BB0EE4E0AF0EE6E0A15F0F0
:1021E000BBFBB0EE40DAF0EE60DA53EC192B51ECA9
:1021F0001D0B16F061FC41EC1C0B53EC1B2B16F075
:1022000067FE41EC1F0B16F033F959490860084688
:1022100090ED000AB1EE400AF2EE040A20EE200A28
:102220005248D0ED000AB2EE041A00EE810ADFED4A
:10223000510A30EE200A504880ED000A084690ED21
:10224000000AF2EE040A20EE200A4848D0ED000A07
:10225000B2EE041A00EE810ADFED460A30EE200AE3
:10226000454880ED010A084690ED000AF2EE040AA6
:1022700020EE200A3D48D0ED000AB2EE041A00EE2E
:10228000C10ADFED3C0A30EE200A3B4880ED020A2D
:10229000084690ED000AB1EE400AF2EE040A20EE84
:1022A000200A3248D0ED000AB2EE041A00EEC10A4C
:1022B000DFED300A30EE200A2F4880ED030A2F4868
:1022C000B0F9000000EE100AB8EEC00A2C4880ED0C
:1022D000000A2A48B0F9020000EE100AB8EEC00A5F
:1022E000274880ED010A2548B0F9040000EE100AE5
:1022F000B8EEC00A224880ED020A2048B0F9060074
:1023000000EE100AB8EEC00A1D483BE0E061002074
:10231000A2840020000080441805002074010020E1
:1023200000002042480100201405002033333333DD
:1023300033331F403C620020680100206C01002004
:10234000CDCC4C3D700100203333733F7801002029
:10235000E17A14AE47C136406E861BF0F921094080
:1023600000000000008066405C0100206001002049
:102370006401002000803B45C0610020580500201A
:102380008061002080ED030A90ED000AFE48D0ED48
:10239000000A30EE600AFD4880ED000AFC4890ED2E
:1023A000010AF948D0ED010A30EE600AF74880EDE5
:1023B000010AF74890ED020AF348D0ED020A30EE28
:1023C000600AF24880ED020AF14890ED030AEE48F7
:1023D000D0ED030A30EE600AEC4880ED030AED48C8
:1023E000D0ED000AEC48B0F9000000EE100AB8EE9B
:1023F000C00A30EEC00AE94880ED000AE548D0ED99
:10240000010AE548B0F9020000EE100AB8EEC00A71
:1024100030EEC00AE14880ED010ADE48D0ED020A44
:10242000DD48B0F9040000EE100AB8EEC00A30EE44
:10243000C00ADA4880ED020AD648D0ED030AD64831
:10244000B0F9060000EE100AB8EEC00A30EEC00A7D
:10245000D24880ED030AD24890ED000ACF48D0ED73
:10246000000AB0EE001A00EE810AC848D0ED000A5A
:10247000B2EE0C1A00EEC10AC94880ED000A90EDD8
:10248000010AC648D0ED010AB0EE001A00EE810A3A
:10249000BE48D0ED010AB2EE0C1A00EEC10AC048E7
:1024A00080ED010A90ED020ABC48D0ED020AB0EEC0
:1024B000001A00EE810AB548D0ED020AB2EE0C1AFD
:1024C00000EEC10AB64880ED020A90ED030AB34857
:1024D000D0ED030AB0EE001A00EE810AAB48D0ED51
:1024E000030AB2EE0C1A00EEC10AAD4880ED030AF1
:1024F00090ED000AAB4880ED000AA94890ED010A72
:10250000A84880ED010AA64890ED020AA54880ED92
:10251000020AA34890ED030AA24880ED030A9E48F0
:10252000B0F9000000EE100AB8EEC00A964880ED3F
:10253000000A9948B0F9020000EE100AB8EEC00A8D
:10254000914880ED010A9448B0F9040000EE100AA9
:10255000B8EEC00A8C4880ED020A8F48B0F9060038
:1025600000EE100AB8EEC00A874880ED030A8D48D5
:1025700090ED030ABDEEC00AD0ED020AFDEEE00ABE
:10258000CDED000A8DED010A90ED010ABDEEC00A05
:1025900010EE103A90ED000ABDEEC00A10EE102ABF
:1025A0000821880104F0D5FB01207F490870002034
:1025B0007E4908707E49087002B0BDEC108B10BDDA
:1025C00030B52DED108B87B00546B0EE408A7948C6
:1025D0004088284400B2774948800846B0F9020094
:1025E000B0F5005F06DB08464088A0F5F850FF38DC
:1025F00000B24880F0EE488A6E49B1F9021041F607
:10260000FF72501A16F0A1F941EC1D0B1FEDB00B33
:1026100053EC102B16F012F841EC1C0B1FEDB20B13
:1026200053EC102B16F048FA41EC1B0B1FEDB40BCA
:1026300053EC102B16F002F841EC1A0B15F018FFB2
:102640000446204616F02EFD41EC1D0BB0EE4D0A5F
:10265000F0EE6D0A15F080F9B0EE40BAF0EE60BA17
:1026600055498988A1F5806016F06FF941EC1C0B83
:1026700053EC1B2B16F020FA41EC1E0B204616F0F3
:1026800011FD41EC1D0BB0EE4D0AF0EE6D0A15F098
:102690001FFAB0EE40BAF0EE60BA4749C988C1F5FA
:1026A000806016F052F941EC1C0B53EC1B2B16F01A
:1026B00003FA41EC1F0B53EC1E2B16F009FC41EC06
:1026C0001A0B15F0D5FE09EE100A204616F0EAFCAA
:1026D00041EC1D0BB0EE4D0AF0EE6D0A15F0F8F965
:1026E000B0EE40BAF0EE60BA33498988A1F5806057
:1026F00016F02BF941EC1C0B53EC1B2B16F0DCF9FC
:1027000041EC1A0B204616F0CDFC41EC1D0BB0EE4F
:102710004D0AF0EE6D0A15F01FF9B0EE40BAF0EE7A
:1027200060BA2549C988C1F5806016F00EF941EC00
:102730001C0B53EC1B2B16F0BFF941EC1E0B53EC9A
:102740001A2B15F0C7FE41EC1F0B15F091FE09EE98
:10275000900AB2EE040A29EE000AF2EE040A09EE2B
:10276000A00AB0EE688AF2EE040A08EE200A8DEDA7
:10277000030AB1EE490AF2EE040A20EE200AF2EE54
:10278000040A09EEA00A19E090610020A06100206F
:1027900080610020C061002058050020B061002049
:1027A0007061002020600020880100208A01002044
:1027B0008901002018050020A2840020B0EE688A5C
:1027C000F2EE040A08EE200A8DED040AB1EE490A81
:1027D000F2EE040A20EE200AF2EE040A09EEE00A04
:1027E000B0EE688AF2EE040A08EE200A8DED050AC2
:1027F000B2EE040A29EE000AF2EE040A09EEE00A3B
:10280000B0EE688AF2EE040A08EE200A8DED060AA0
:102810009DED031AF0EE410AFE48B0F9000001EE0A
:10282000100AB8EEC11AB0EE410AFB48816C884725
:10283000FA4880ED000A9DED041AF0EE410AF548D1
:10284000B0F9020001EE100AB8EEC11AB0EE410A6A
:10285000F148D0F894104C308847F04880ED010AD8
:102860009DED051AF0EE410AEA48B0F9040001EEC8
:10287000100AB8EEC11AB0EE410AE748D0F8E010ED
:1028800098308847E54880ED020A9DED061AF0EE83
:10289000410AE048B0F9060001EE100AB8EEC11A8C
:1028A000B0EE410ADC48D0F82C11E4308847DB4810
:1028B00080ED030A90ED030ABDEEC00AD0ED020AD6
:1028C000FDEEE00ACDED000A8DED010A90ED010A62
:1028D000BDEEC00A10EE103A90ED000ABDEEC00A3F
:1028E00010EE102A0821880104F033FA0020CC49A8
:1028F0000870CC4908700120CB49087007B0BDECC6
:10290000108B30BD0146F0EE401AB0EE602A08464A
:10291000F0EE612AB0EE421A32EEC13AF0EE430A0E
:10292000F5EEC00AF1EE10FA12DD03EE100AB8EE71
:10293000C33AF4EEC30AF1EE10FA06DD03EE100A14
:10294000B8EEC33A31EE030A15E031EE200A12E088
:10295000424203EE102AB8EEC33AF4EEC30AF1EE97
:1029600010FA06D203EE100AB8EEC33A31EE430A6B
:1029700001E031EE200A704770B52DED108B86B066
:102980000646AA4890ED000AF0EE409AB0EE080A1A
:10299000F0EE408A9FEDA60AB0EE409AA548C088A6
:1029A000A0F5806000EE100AB8EEC00A20EE290AF9
:1029B00010EE101A084616F075FB41EC1A0B9D48F4
:1029C0008088A0F5806000EE100AB8EEC00A20EE04
:1029D000290A10EE101A084616F064FB41EC1B0B96
:1029E0009FED950B53EC102B51EC1B0B16F064F87C
:1029F00041EC1D0B9FED900B53EC102B51EC1A0B7F
:102A000016F05AF841EC1E0B53EC1D2B16F060FA31
:102A100041EC1C0B15F02CFD894908609FED860BDD
:102A200053EC102B51EC1B0B16F046F841EC1C0B31
:102A300051EC1A0B15F010FD41EC1E0B9FED7E0BB7
:102A400053EC102B16F038F841EC1D0B53EC1C2BFB
:102A500016F03EFACDE900019DED000B51EC100B94
:102A600015F006FD764948609FED730B53EC102B73
:102A700051EC1B0B16F020F841EC1C0B51EC1A0B1F
:102A800015F0EAFC9FED6C0B53EC102BCDE9000127
:102A90009DED000B51EC100B16F00EF841EC1D0BE8
:102AA00053EC1C2B15F016FD41EC1E0B15F0E0FC51
:102AB000634988609FED600B53EC102B51EC1B0BAE
:102AC00015F0FAFF41EC1D0B9FED5B0B53EC102B47
:102AD00051EC1A0B15F0F0FF41EC1E0B53EC1D2BC3
:102AE00015F0F8FC41EC1C0B15F0C2FC5449C86011
:102AF0003546B5F5005F03DBA5F5F855FF3D04E06D
:102B0000002D02DA41F6FF7005444E48B0F902008C
:102B1000A8421DDC4B48B0F90200281A40F6FF71AC
:102B2000884208DB4748B0F902004142A5F5F85059
:102B3000FF380C182BE04348B0F90200281A40F681
:102B4000FF71884223DA3F48B0F902002C1A1EE0D8
:102B50003C48B0F90200A84219DD3A48B0F9020039
:102B6000281A10F5805F04DD3648B0F902002C1AEF
:102B70000DE03448B0F90200281A10F5805F06DC39
:102B80003048B0F9020041F6FF71081A4419B4F553
:102B9000836F01DD4FF4836414F5836F00DA2A4CF0
:102BA00000EE104AB8EEC0FA3FEE6F0AB0EE408A6F
:102BB000B0EE480A07F0B7FDB0EE408A2048D0EDED
:102BC000000A00EE104AB8EEC01AB0EE600A01EE3C
:102BD000280A08EE490A8DED020AD0ED010A00EE3E
:102BE000104AB8EEC01AB0EE600A01EE280A08EEEC
:102BF000490A8DED030AD0ED020A00EE104AB8EE44
:102C0000C01AB0EE600A01EE280A08EE490A8DEDFE
:102C1000040A1BE0580500204060002020600020CE
:102C2000890100208A01002088010020E0040020A2
:102C30000AD7233EA28400200000000000002440A8
:102C40003060002018050020E8FBFFFFD0ED030AEC
:102C500000EE104AB8EEC01AB0EE600A01EE280A83
:102C600008EE490A8DED050A00EE104AB8EEC00ADA
:102C7000F0EE40FAFE48B0F9000001EE100AB8EE9E
:102C8000C11AF0EE410A9DED021AB0EE410A4FF46E
:102C9000E670FFF737FEB0EE40CAF548B0F9000025
:102CA00000EE900AF8EEE00AB0EE600AF148F0EEAD
:102CB0004C0A816C8847F04880ED000AEC48B0F976
:102CC000020001EE100AB8EEC11AF0EE410A9DEDC5
:102CD000031AB0EE410A4FF4E670FFF713FEB0EEB0
:102CE00040CAE348B0F9020000EE900AF8EEE00AAC
:102CF000B0EE600ADF48F0EE4C0AD0F894104C3089
:102D00008847DD4880ED010AD948B0F9040001EE9A
:102D1000100AB8EEC11AF0EE410A9DED041AB0EEA9
:102D2000410A4FF4E670FFF7EDFDB0EE40CAD0481F
:102D3000B0F9040000EE900AF8EEE00AB0EE600A86
:102D4000CC48F0EE4C0AD0F8E01098308847CA48DA
:102D500080ED020AC648B0F9060001EE100AB8EE8E
:102D6000C11AF0EE410A9DED051AB0EE410A4FF48A
:102D7000E670FFF7C7FDB0EE40CABD48B0F90600E7
:102D800000EE900AF8EEE00AB0EE600AB948F0EE04
:102D90004C0AD0F82C11E4308847B74880ED030A7C
:102DA00090ED030ABDEEC00AD0ED020AFDEEE00A86
:102DB000CDED000A8DED010A90ED010ABDEEC00ACD
:102DC00010EE103A90ED000ABDEEC00A10EE102A87
:102DD0000821880103F0BDFF0020A84908700120E8
:102DE000A74908700020A749087006B0BDEC108BF9
:102DF00070BD00B52DED028B87B0A349C988C1F520
:102E0000806101EB81014A009F498988A1F58061B9
:102E100001EB810102EB410015F097FD15F028FB55
:102E200003909949C988A1F5806101EB81014A00AD
:102E300095498988A1F5806101EB810102EB410090
:102E400015F083FD15F014FB04908F49C988A1F596
:102E5000806101EB81014A008B498988A1F580617D
:102E600001EB8101A2EB410015F06FFD15F000FBB5
:102E700005908549C988C1F5806101EB81014A004F
:102E800081498988A1F5806101EB8101A2EB4100B4
:102E900015F05BFD15F0ECFA06907548B0F90000EE
:102EA00001EE100AB8EEC11AF0EE410A9DED031AC8
:102EB000B0EE410A4FF4E670FFF724FDB0EE408A11
:102EC0006B48B0F9000000EE900AF8EEE00AB0EEB0
:102ED000600A6848F0EE480A816C8847664880EDD1
:102EE000000A6348B0F9020001EE100AB8EEC11AF8
:102EF000F0EE410A9DED041AB0EE410A4FF4E6707F
:102F0000FFF700FDB0EE408A5948B0F9020000EE2C
:102F1000900AF8EEE00AB0EE600A5648F0EE480A71
:102F2000D0F894104C308847534880ED010A50483F
:102F3000B0F9040001EE100AB8EEC11AF0EE410A31
:102F40009DED051AB0EE410A4FF4E670FFF7DAFC8A
:102F5000B0EE408A4648B0F9040000EE900AF8EE60
:102F6000E00AB0EE600A4348F0EE480AD0F8E010FC
:102F700098308847404880ED020A3D48B0F9060085
:102F800001EE100AB8EEC11AF0EE410A9DED061AE4
:102F9000B0EE410A4FF4E670FFF7B4FCB0EE408AA1
:102FA0003348B0F9060000EE900AF8EEE00AB0EE01
:102FB000600A3048F0EE480AD0F82C11E430884717
:102FC0002D4880ED030A90ED030ABDEEC00AD0ED56
:102FD000020AFDEEE00ACDED000A8DED010A90ED4A
:102FE000010ABDEEC00A10EE103A90ED000ABDEEE7
:102FF000C00A10EE102A0821880103F0AAFE07B0CB
:10300000BDEC028B00BD03B591B0204800780028CC
:1030100070D11F49129808801E48008818B91E49AF
:103020001198086004E01198A0F6FF701A49086032
:1030300019480068B0F5005F07DB17480068A0F585
:10304000F850FF38144908600AE013480068002867
:1030500006DA1148006841F6FF7108440E4908601D
:103060000E48B0F902000C490968884243DC17E0B9
:1030700058050020406000202060002089010020C9
:103080008A01002088010020A28400201001002075
:10309000FE010020FC010020500100201805002046
:1030A000FE48B0F90200FE490968081A40F6FF71AF
:1030B00088420CDBF948B0F902004142F848006848
:1030C000A0F5F850FF380844F64908603FE0F3489F
:1030D000B0F90200F2490968081A40F6FF71884207
:1030E00035DAEE48B0F90200ED490968081AED49F1
:1030F00008602CE0EEE3E948B0F90200E84909680D
:10310000884224DDE548B0F90200E5490968081A5B
:1031100010F5805F07DDE148B0F90200E049096879
:10312000081AE0490860DD48B0F90200DC49096886
:10313000081A10F5805F0ADCD848B0F9020041F6A1
:10314000FF71081AD64909680844D6490860D6486C
:103150000088012812D1D3480068B0F5006F04DC64
:10316000D048006810F5006F0BDAD048008808B925
:10317000012000E00020CD49088002E00020CB497A
:103180000880C848006815F0E0FB9FEDC90B53ECC0
:10319000102BCDE90C019DED0C0B51EC100B15F033
:1031A0008BFCCDE90E019DED0E0B51EC100B15F0D3
:1031B0009DFBBC4908600846006841F2CB2188426B
:1031C00002DD0846B7490860B6480068BA49884237
:1031D00002DA0846B3490860B24890ED000AB8EE3A
:1031E000C00AB64880ED000AB548407A01287DD073
:1031F000AE48008800287AD1B148C088C0F5806008
:1032000000EB80004100AE488088A0F5806000EBB4
:10321000800001EB4000A3490968084400EE100A51
:10322000B8EEC00AA548D0ED000AA64890ED001AF5
:1032300070EEC10AB0EE001A00EEC10A8DED0D0A63
:103240000D9815F02FFFCDE90E019DED0E0B51EC01
:10325000100B15F00DF99C4908609948C088A0F53D
:10326000806000EB8000410095488088A0F5806078
:1032700000EB800001EB40008A490968084400EE39
:10328000100AB8EEC00A8D48D0ED000A8D4890EDC6
:10329000001A70EEC10AB0EE001A00EEC10A8DED00
:1032A0000D0A0D9815F0FEFECDE90E019DED0E0BF9
:1032B00051EC100B15F0DCF8834948608048C08859
:1032C000A0F5806000EB800041007D488088A0F57B
:1032D000806000EB8000A1EB40007249096808445F
:1032E00000EE100AB8EEC00A744801E029E14BE094
:1032F000D0ED000A734890ED001A70EEC10AB0EEEE
:10330000001A00EEC10A8DED0D0A0D9815F0CAFEE7
:10331000CDE90E019DED0E0B51EC100B15F0A8F848
:10332000694988606648C088C0F5806000EB80000D
:10333000410063488088A0F5806000EB8000A1EB2D
:10334000400058490968084400EE100AB8EEC00A67
:103350005A48D0ED000A5B4890ED001A70EEC10AA1
:10336000B0EE001A00EEC10A8DED0D0A0D9815F0B1
:1033700099FECDE90E019DED0E0B51EC100B15F0F1
:1033800077F85149C860DCE04D48C088A0F58060FE
:1033900000EB800041004A488088A0F5806000EB87
:1033A0008000A1EB40003F490968084400EE100A84
:1033B000B8EEC00A4148D0ED000A424890ED001A2C
:1033C00070EEC10AB2EE001A00EEC10A8DED0D0AD0
:1033D0000D9815F067FECDE90E019DED0E0B51EC39
:1033E000100B15F045F8384908603548C088C0F51D
:1033F000806000EB8000410031488088A0F580604B
:1034000000EB8000A1EB400026490968084400EE6B
:10341000100AB8EEC00A2948D0ED000A294890EDFC
:10342000001A70EEC10AB2EE001A00EEC10A8DED6C
:103430000D0A0D9815F036FECDE90E019DED0E0B2F
:1034400051EC100B15F014F81F4948601C48C08857
:10345000C0F5806000EB8000410019488088A0F52D
:10346000806000EB800001EB40000E4909680844D1
:1034700000EE100AB8EEC00A1048D0ED000A11485C
:1034800090ED001A70EEC10AB2EE001A00EEC10A09
:103490008DED0D0A0D9815F005FE17E018050020BA
:1034A000500100204C010020FE010020FC01002002
:1034B000000000000000044035EDFFFF5401002033
:1034C000A284002058010020D0610020CDE90E0127
:1034D0009DED0E0B51EC100B14F0CAFFFE498860F5
:1034E000FE48C088A0F5806000EB80004100FB48EA
:1034F0008088A0F5806000EB800001EB4000F84977
:103500000968084400EE100AB8EEC00AF548D0ED8C
:10351000000AF54890ED001A70EEC10AB2EE001AEA
:1035200000EEC10A8DED0D0A0D9815F0BBFDCDE939
:103530000E019DED0E0B51EC100B14F099FFE649B6
:10354000C860E74890ED000AB8EEC00AE64880ED92
:10355000000AE148D0ED000AE448B0F9000000EEAE
:10356000100AB8EEC00A30EEC00AE14880ED000A49
:10357000D948D0ED010ADD48B0F9020000EE100A8A
:10358000B8EEC00A30EEC00AD94880ED010AD24830
:10359000D0ED020AD548B0F9040000EE100AB8EEEA
:1035A000C00A30EEC00AD24880ED020ACA48D0ED07
:1035B000030ACE48B0F9060000EE100AB8EEC00AC1
:1035C00030EEC00ACA4880ED030A9FEDCA0ACA4815
:1035D00080ED000AC64890ED000AB5EEC00AF1EE93
:1035E00010FA29DD90ED000AC348D0ED000AB4EED0
:1035F000E00AF1EE10FA0FDDBC48B0F9000000EE71
:10360000100AB8EEC00ABC48D0ED000A30EE200A1D
:10361000BA4880ED000A3BE0B448B0F9000000EE83
:10362000100AB8EEC00AB248D0ED000A30EE200A07
:10363000B24880ED000A2BE0AD4890ED000AAE489C
:10364000D0ED000AF1EE600AB4EEE00AF1EE10FAF5
:103650000FD2A648B0F9000000EE100AB8EEC00A7A
:10366000A548D0ED000A30EE600AA44880ED000ABB
:103670000EE09E48B0F9000000EE100AB8EEC00A55
:103680009B48D0ED000A30EE200A9C4880ED000AED
:10369000974890ED010AB5EEC00AF1EE10FA29DD67
:1036A00090ED010A9448D0ED000AB4EEE00AF1EE84
:1036B00010FA0FDD8D48B0F9020000EE100AB8EEE6
:1036C000C00A8D48D0ED000A30EE200A8B4880ED0C
:1036D000010A3BE08548B0F9020000EE100AB8EE9E
:1036E000C00A8348D0ED010A30EE200A834880EDFD
:1036F000010A2BE07E4890ED010A7F48D0ED000AD8
:10370000F1EE600AB4EEE00AF1EE10FA0FD277485B
:10371000B0F9020000EE100AB8EEC00A7648D0ED0B
:10372000000A30EE600A754880ED010A0EE06F482D
:10373000B0F9020000EE100AB8EEC00A6C48D0EDF5
:10374000010A30EE200A6D4880ED010A684890EDCC
:10375000020AB5EEC00AF1EE10FA29DD90ED020A78
:103760006548D0ED000AB4EEE00AF1EE10FA0FDD84
:103770005E48B0F9040000EE100AB8EEC00A5E48D8
:10378000D0ED000A30EE200A5C4880ED020A3BE0F2
:103790005648B0F9040000EE100AB8EEC00A5448CA
:1037A000D0ED020A30EE200A544880ED020A2BE0E8
:1037B0004F4890ED020A5048D0ED000AF1EE600A41
:1037C000B4EEE00AF1EE10FA0FD24848B0F9040066
:1037D00000EE100AB8EEC00A4748D0ED000A30EEFD
:1037E000600A464880ED020A0EE04048B0F9040045
:1037F00000EE100AB8EEC00A3D48D0ED020A30EEE5
:10380000200A3E4880ED020A394890ED030AB5EEE1
:10381000C00AF1EE10FA29DD90ED030A3648D0ED2A
:10382000000AB4EEE00AF1EE10FA0FDD2F48B0F90D
:10383000060000EE100AB8EEC00A2F48D0ED000ACC
:1038400030EE200A2D4880ED030A3BE02748B0F90E
:10385000060000EE100AB8EEC00A2548D0ED030AB3
:1038600030EE200A254880ED030A2BE0204890ED39
:10387000030A2148D0ED000AF1EE600AB4EEE00A36
:10388000F1EE10FA0FD21948B0F9060000EE100A56
:10389000B8EEC00A1848D0ED000A30EE600A1748AA
:1038A00080ED030A0EE01148B0F9060000EE100AA0
:1038B000B8EEC00A0E48D0ED030A30EE200A0F48D9
:1038C00080ED030A0948B0F9000000EE100AB8EED6
:1038D000C00A15E047E10000D0610020A28400206A
:1038E0004C01002054010020580100205805002000
:1038F000B06100200080E64348010020C061002044
:10390000FE4880ED000AFE48B0F9020000EE100A01
:10391000B8EEC00AF94880ED010AF948B0F9040090
:1039200000EE100AB8EEC00AF44880ED020AF4482E
:10393000B0F9060000EE100AB8EEC00AEF4880EDBC
:10394000030A90ED000AEF48D0ED000A30EE600A5D
:10395000ED4880ED000AE94890ED010AE948D0ED14
:10396000010A30EE600AE84880ED010AE34890ED74
:10397000020AE448D0ED020A30EE600AE24880ED27
:10398000020ADE4890ED030ADE48D0ED030A30EE6D
:10399000600ADD4880ED030ADC48D0ED000AD84813
:1039A000B0F9000000EE100AB8EEC00A30EEC00A0E
:1039B000D74880ED000AD548D0ED010AD048B0F9CB
:1039C000020000EE100AB8EEC00A30EEC00AD0487D
:1039D00080ED010ACD48D0ED020AC948B0F90400D3
:1039E00000EE100AB8EEC00A30EEC00AC84880EDFA
:1039F000020AC648D0ED030AC148B0F9060000EE3D
:103A0000100AB8EEC00A30EEC00AC14880ED030AC1
:103A1000C04890ED000ABE48D0ED000AB0EE081A8A
:103A200000EE810AB848D0ED000AB2EE0C1A00EEA2
:103A3000C10AB84880ED000A90ED010AB448D0ED03
:103A4000010AB0EE081A00EE810AAF48D0ED010A73
:103A5000B2EE0C1A00EEC10AAE4880ED010A90EDFC
:103A6000020AAB48D0ED020AB0EE081A00EE810A55
:103A7000A548D0ED020AB2EE0C1A00EEC10AA54824
:103A800080ED020A90ED030AA148D0ED030AB0EEE2
:103A9000081A00EE810A9C48D0ED030AB2EE0C1A17
:103AA00000EEC10A9B4880ED030A90ED000A9A4897
:103AB00080ED000A974890ED010A974880ED010AD1
:103AC000944890ED020A944880ED020A914890EDE6
:103AD000030A914880ED030A8948B0F9000000EE1E
:103AE000100AB8EEC00A874880ED000A8448B0F991
:103AF000020000EE100AB8EEC00A824880ED010A0A
:103B00007F48B0F9040000EE100AB8EEC00A7D4804
:103B100080ED020A7A48B0F9060000EE100AB8EE0D
:103B2000C00A784880ED030A7B4890ED030ABDEE99
:103B3000C00AD0ED020AFDEEE00ACDED000A8DEDDF
:103B4000010A90ED010ABDEEC00A8DED0F0A90ED5D
:103B5000000ABDEEC00A8DED0E0A08218801DDE9DC
:103B60000E2303F0F6F86D48007801287ED16C48EA
:103B700000780028FAD16B49129808806A480088BA
:103B800018B96A491198086004E01198A0F6FF700E
:103B90006649086065480068B0F5005F07DB634868
:103BA0000068A0F5F850FF38604908600AE05F48F7
:103BB0000068002806DA5D48006841F6FF71084495
:103BC0005A4908605A48B0F90210584800688142C2
:103BD00029DC5748B0F9020054490968081A40F630
:103BE000FF7188420CDB5248B0F9020041424F4855
:103BF0000068A0F5F850FF3808444E49086040E0DE
:103C00004B48B0F9020049490968091A40F6FF70AB
:103C1000814236DA4648B0F9020044490968091A77
:103C2000444801602DE04248B0F902003F4909686C
:103C3000884226DD3E48B0F902003C490968081A6E
:103C400010F5805F07DD3A48B0F90200374909688E
:103C5000091A384801603648B0F902103348006844
:103C6000401A10F5805F0CDC314800E0FAE3B0F94F
:103C7000020041F6FF71091A2C48006808442D49DA
:103C8000086028480088012812D12A480068B0F549
:103C9000006F04DC2748006810F5006F0BDA22483B
:103CA000008808B9012100E000211F48018002E0DE
:103CB00000201D4908801F48006814F046FE9FED53
:103CC0001E0B53EC102BCDE90C019DED0C0B51ECB0
:103CD000100B14F0F1FECDE90E019DED0E0B51EC31
:103CE000100B14F003FE134908600846006841F207
:103CF000CB21884201DD0F48016021E08061002076
:103D00005805002090610020A0610020C0610020C3
:103D1000B0610020706100202060002010010020B0
:103D200011010020FE010020FC01002050010020B4
:103D3000180500204C010020000000000000044095
:103D4000FE480068FE49884202DA0846FB490860DE
:103D5000FA4890ED000AB8EEC00AFA4880ED000A71
:103D6000F948008800287CD1F64890ED000AF74811
:103D7000D0ED000A30EE600AF2EE000A20EE200AD2
:103D80008DED090A099815F08DF9CDE90C01EB4884
:103D9000006814F0DAFDCDE90801ED48C088C0F5EF
:103DA000806000EB80004100E9488088A0F58060D9
:103DB00000EB800001EB4000019014F0C6FDCDE95E
:103DC0000401E448006815F06DF9CDE902019DEDAC
:103DD000040B53EC102B9DED020B51EC100B14F067
:103DE00079FBCDE906019DED080B53EC102B9DED01
:103DF000060B51EC100B14F06DFBCDE90A019DEDA3
:103E00000C0B53EC102B9DED0A0B51EC100B15F025
:103E10005FF8CDE90E019DED0E0B51EC100B14F087
:103E200027FBCD490860C74890ED000AC748D0ED90
:103E3000000A30EE600AF2EE000A20EE200A8DED54
:103E4000090A099815F02EF9CDE90C01BB48006864
:103E500014F07BFDCDE90801BD48C088A0F5806065
:103E600000E000E100EB80004100B9488088A0F547
:103E7000806000EB800001EB4000019014F065FDD4
:103E8000CDE90401B548006815F00CF9CDE902014F
:103E90009DED040B53EC102B9DED020B51EC100B20
:103EA00014F018FBCDE906019DED080B53EC102B27
:103EB0009DED060B51EC100B14F00CFBCDE90A0143
:103EC0009DED0C0B53EC102B9DED0A0B51EC100BE0
:103ED00014F0FEFFCDE90E019DED0E0B51EC100B21
:103EE00014F0C6FA9C494860964890ED000A97483D
:103EF000D0ED000A30EE600AF2EE000A20EE200A51
:103F00008DED090A099815F0CDF8CDE90C018B4823
:103F1000006814F01AFDCDE908018D48C088A0F5AD
:103F2000806000EB8000410089488088A0F58060B7
:103F300000EB8000A1EB4000019014F006FDCDE9FC
:103F400004018748006815F0ADF8CDE902019DED48
:103F5000040B53EC102B9DED020B51EC100B14F0E5
:103F6000B9FACDE906019DED080B53EC102B9DED40
:103F7000060B51EC100B14F0ADFACDE90A019DEDE2
:103F80000C0B53EC102B9DED0A0B51EC100B14F0A5
:103F90009FFFCDE90E019DED0E0B51EC100B14F0BF
:103FA00067FA6D498860674890ED000A6748D0ED70
:103FB000000A30EE600AF2EE000A20EE200A8DEDD3
:103FC000090A099815F06EF8CDE90C015B48006804
:103FD00014F0BBFCCDE908015D48C088C0F58060E5
:103FE00000EB800041005A488088A0F5806000EB1B
:103FF0008000A1EB4000019014F0A7FCCDE9040182
:104000005848006815F04EF8CDE902019DED040B0B
:1040100053EC102B9DED020B51EC100B14F05AFADF
:10402000CDE906019DED080B53EC102B9DED060B21
:1040300051EC100B14F04EFACDE90A019DED0C0B7A
:1040400053EC102B9DED0A0B51EC100B14F040FFBC
:10405000CDE90E019DED0E0B51EC100B14F008FA9A
:104060003D49C86093E1374890ED000A3748D0EDEC
:10407000000A30EE600AF2EE000A20EE200A8DED12
:10408000090A099815F00EF8CDE90C012B480068D3
:1040900014F05BFCCDE908012D48C088A0F58060D4
:1040A00000EB800041002A488088A0F5806000EB8A
:1040B0008000A1EB4000019014F047FCCDE9040121
:1040C0002448006814F0EEFFCDE902019DED040BD9
:1040D00053EC102B9DED020B51EC100B14F0FAF980
:1040E000CDE906019DED080B53EC102B9DED060B61
:1040F00051EC100B14F0EEF9CDE90A019DED0C0B1B
:1041000053EC102B9DED0A0B51EC100B14F0E0FE5C
:10411000CDE90E019DED0E0B51EC100B14F0A8F93A
:104120000D490860074890ED000A0848D0ED000AE4
:1041300030EE600AF2EE000A16E000004C010020AA
:1041400035EDFFFF54010020FC0100205801002044
:10415000A2840020BC010020D0610020C00100200A
:10416000C4010020C801002020EE200A8DED090ABC
:10417000099814F097FFCDE90C01FE48006814F08F
:10418000E4FBCDE90801FC48C088C0F5806000EB85
:1041900080004100F8488088A0F5806000EB800036
:1041A000A1EB4000019014F0D0FBCDE90401F348ED
:1041B000006814F077FFCDE902019DED040B53EC8C
:1041C000102B9DED020B51EC100B14F083F9CDE98F
:1041D00006019DED080B53EC102B9DED060B51ECE9
:1041E000100B14F077F9CDE90A019DED0C0B53EC9F
:1041F000102B9DED0A0B51EC100B14F069FECDE96C
:104200000E019DED0E0B51EC100B14F031F9DC4951
:104210004860DC4890ED000ADB48D0ED000A30EE43
:10422000600AF2EE000A20EE200A8DED090A0998D4
:1042300014F038FFCDE90C01CE48006814F085FB7E
:10424000CDE90801CC48C088C0F5806000EB800053
:104250004100C9488088A0F5806000EB800001EB38
:104260004000019014F071FBCDE90401C7480068DB
:1042700014F018FFCDE902019DED040B53EC102B57
:104280009DED020B51EC100B14F024F9CDE9060161
:104290009DED080B53EC102B9DED060B51EC100B14
:1042A00014F018F9CDE90A019DED0C0B53EC102B1D
:1042B0009DED0A0B51EC100B14F00AFECDE90E0136
:1042C0009DED0E0B51EC100B14F0D2F8AC49886048
:1042D000AC4890ED000AAC48D0ED000A30EE600A20
:1042E000F2EE000A20EE200A8DED090A099814F07A
:1042F000D9FECDE90C019F48006814F026FBCDE9FA
:1043000008019D48C088A0F5806000EB8000410056
:1043100099488088A0F5806000EB800001EB4000A8
:10432000019014F012FBCDE904019948006814F0E3
:10433000B9FECDE902019DED040B53EC102B9DED70
:10434000020B51EC100B14F0C5F8CDE906019DED00
:10435000080B53EC102B9DED060B51EC100B14F0D9
:10436000B9F8CDE90A019DED0C0B53EC102B9DED36
:104370000A0B51EC100B14F0ABFDCDE90E019DEDD5
:104380000E0B51EC100B14F073F87D49C86079489E
:1043900090ED000AB8EEC00A7B4880ED000A78482C
:1043A000D0ED000A7B48B0F9000000EE100AB8EE2C
:1043B000C00A30EEC00A784880ED000A7048D0ED9F
:1043C000010A7448B0F9020000EE100AB8EEC00A03
:1043D00030EEC00A704880ED010A6948D0ED020A4B
:1043E0006C48B0F9040000EE100AB8EEC00A30EED6
:1043F000C00A694880ED020A6148D0ED030A6548A9
:10440000B0F9060000EE100AB8EEC00A30EEC00A9D
:10441000614880ED030A9FED610A614880ED000A62
:104420005D4890ED000AB5EEC00AF1EE10FA2ADD03
:1044300090ED000A5A48D0ED000AB4EEE00AF1EE21
:1044400010FA10DD5348B0F9000000EE100AB8EE83
:10445000C00A5348D0ED000A30EE200A514880EDE2
:10446000000A3CE0BEE24B48B0F9000000EE100A42
:10447000B8EEC00A4848D0ED000A30EE200A49489C
:1044800080ED000A2BE0444890ED000A4448D0ED4E
:10449000000AF1EE600AB4EEE00AF1EE10FA0FD273
:1044A0003C48B0F9000000EE100AB8EEC00A3C48E3
:1044B000D0ED000A30EE600A3A4880ED000A0EE0C6
:1044C0003448B0F9000000EE100AB8EEC00A3248D5
:1044D000D0ED000A30EE200A324880ED000A2E4866
:1044E00090ED010AB5EEC00AF1EE10FA29DD90ED6B
:1044F000010A2B48D0ED000AB4EEE00AF1EE10FA02
:104500000FDD2448B0F9020000EE100AB8EEC00A30
:104510002348D0ED000A30EE200A224880ED010A3F
:1045200057E01C48B0F9020000EE100AB8EEC00ACD
:104530001948D0ED010A30EE200A1A4880ED010A30
:1045400047E0154890ED010A1548D0ED000AF1EE5C
:10455000600AB4EEE00AF1EE10FA2BD20D48B0F981
:10456000020000EE100AB8EEC00A0D48D0ED000AB5
:104570001AE000004C010020A2840020C0010020AD
:10458000D06100205401002058010020C401002007
:10459000C801002058050020B06100200080E643DB
:1045A00048010020C061002030EE600AFE4880ED26
:1045B000010A0EE0FD48B0F9020000EE100AB8EE64
:1045C000C00AFB48D0ED010A30EE200AF64880ED23
:1045D000010AF74890ED020AB5EEC00AF1EE10FAB2
:1045E00029DD90ED020AF348D0ED000AB4EEE00AAE
:1045F000F1EE10FA0FDDED48B0F9040000EE100AFC
:10460000B8EEC00AEB48D0ED000A30EE200AE648CA
:1046100080ED020A3BE0E548B0F9040000EE100A24
:10462000B8EEC00AE248D0ED020A30EE200ADE48B9
:1046300080ED020A2BE0DE4890ED020ADD48D0ED65
:10464000000AF1EE600AB4EEE00AF1EE10FA0FD2C1
:10465000D648B0F9040000EE100AB8EEC00AD548FA
:10466000D0ED000A30EE600ACF4880ED020A0EE07D
:10467000CE48B0F9040000EE100AB8EEC00ACC48EB
:10468000D0ED020A30EE200AC74880ED020AC84881
:1046900090ED030AB5EEC00AF1EE10FA29DD90EDB7
:1046A000030AC448D0ED000AB4EEE00AF1EE10FAB5
:1046B0000FDDBE48B0F9060000EE100AB8EEC00AE1
:1046C000BC48D0ED000A30EE200AB74880ED030A5E
:1046D0003BE0B648B0F9060000EE100AB8EEC00A9A
:1046E000B348D0ED030A30EE200AAF4880ED030A4C
:1046F0002BE0AF4890ED030AAE48D0ED000AF1EE92
:10470000600AB4EEE00AF1EE10FA0FD2A748B0F951
:10471000060000EE100AB8EEC00AA648D0ED000A66
:1047200030EE600AA04880ED030A0EE09F48B0F921
:10473000060000EE100AB8EEC00A9D48D0ED030A4C
:1047400030EE200A984880ED030A9848B0F900003E
:1047500000EE100AB8EEC00A974880ED000A9348B0
:10476000B0F9020000EE100AB8EEC00A924880EDDF
:10477000010A8E48B0F9040000EE100AB8EEC00A33
:104780008D4880ED020A8948B0F9060000EE100A53
:10479000B8EEC00A884880ED030A90ED000A874809
:1047A000D0ED000A30EE600A854880ED000A8248AC
:1047B00090ED010A8148D0ED010A30EE600A804890
:1047C00080ED010A7C4890ED020A7C48D0ED020A97
:1047D00030EE600A7A4880ED020A774890ED030ACD
:1047E0007648D0ED030A30EE600A754880ED030A82
:1047F0006D48D0ED000A6D48B0F9000000EE100AD7
:10480000B8EEC00A30EEC00A694880ED000A66487A
:10481000D0ED010A6548B0F9020000EE100AB8EECA
:10482000C00A30EEC00A624880ED010A5E48D0ED51
:10483000020A5E48B0F9040000EE100AB8EEC00AA1
:1048400030EEC00A5A4880ED020A5748D0ED030AFC
:104850005648B0F9060000EE100AB8EEC00A30EE75
:10486000C00A534880ED030A564890ED000A5048AC
:10487000D0ED000AB0EE081A00EE810A5048D0EDE3
:10488000000AB2EE0C1A00EEC10A4E4880ED000A92
:1048900090ED010A4648D0ED010AB0EE081A00EE8C
:1048A000810A4748D0ED010AB2EE0C1A00EEC10AA7
:1048B000444880ED010A90ED020A3D48D0ED020A1D
:1048C000B0EE081A00EE810A3D48D0ED020AB2EEC1
:1048D0000C1A00EEC10A3B4880ED020A90ED030A73
:1048E0003348D0ED030AB0EE081A00EE810A3448CE
:1048F000D0ED030AB2EE0C1A00EEC10A314880ED89
:10490000030A90ED000A304880ED000A2D4890ED32
:10491000010A2D4880ED010A2A4890ED020A2A4832
:1049200080ED020A274890ED030A274880ED030A2C
:104930001E48B0F9000000EE100AB8EEC00A1F4889
:1049400080ED000A1948B0F9020000EE100AB8EE36
:10495000C00A1A4880ED010A1448B0F9040000EEBC
:10496000100AB8EEC00A154880ED020A0F48B0F9E7
:10497000060000EE100AB8EEC00A104880ED030AE7
:10498000114890ED030ABDEEC00AD0ED020AFDEE1B
:10499000E00ACDED000A8DED010A90ED010ABDEEB1
:1049A000C00A8DED0F0A11E0C061002058050020FB
:1049B000B06100204801002080610020906100204B
:1049C000A0610020706100202060002090ED000AAE
:1049D000BDEEC00A8DED0E0A08218801DDE90E2327
:1049E00002F0B7F913B000BD10B5674805F096FEA8
:1049F00065484C3005F092FE6348983005F08EFE15
:104A00006148E43005F08AFE5F489FED601ADFEDF3
:104A10005F0A9FED5E0A5E4A0121436C98475A483F
:104A20009FED5A1ADFED590A9FED580A584A0121A5
:104A3000D0F890304C30984753489FED541ADFED32
:104A4000530A9FED520A524A0121D0F8DC309830C7
:104A500098474D489FED4D1ADFED4C0A9FED4B0AEC
:104A60004B4A0121D0F82831E430984710BD2DED94
:104A7000068B84B0FFF7B8FF03F086FB9FED430A77
:104A8000F0EE408A9FED410AB0EE409A9FED3F0A5A
:104A9000F0EE409A9FED3F0AB0EE40AA72E0B1EE10
:104AA000040AB0EE408AB2EE040AF0EE40AA3A4898
:104AB00090ED000ADFED390A30EE600A20EE080AB8
:104AC000F0EE408A364890ED000ADFED340A30EE11
:104AD000600A20EE080AB0EE409A3248808EA0F5B7
:104AE000806000EE100AB8EEC00A20EE2A0AF0EE4E
:104AF000409AF0EE4A1AB0EE691AF0EE490AB0EEAA
:104B0000680A03F045FC2748007A012806D19FED8A
:104B1000260A40F2CE60FDF753FD29E02148007AD5
:104B2000022803D101202149087021E01D48007AA4
:104B300003280BD100201E49087040F6DE50FDF717
:104B40001BFFFCF7BBFFFDF78EF811E000201949B1
:104B50000870194908701949087000900346024608
:104B600008210190880102F0F4F800201049087033
:104B700003A800210A230A46CDE90010084611F0D7
:104B80007EFD00BF8BE700004060002000000000B9
:104B90003C01002000A08C468001002000008044E1
:104BA00084010020A28400200000C84322010020CC
:104BB00010010020890100208A01002088010020C6
:104BC0000EB590E048480088401E00B24649088073
:104BD00008F063FE08F087FE00200090034642F2D2
:104BE0001072082101904FF4047002F0B2F83E48B0
:104BF000B0F9000001286DDA00203C4908724872C3
:104C00004881002139488181C1814FF48060374952
:104C1000088048808880C88000213448017441742D
:104C200041864FF48060314988860846408E00F006
:104C3000010048820846408EC0F340012B48818223
:104C4000408EC0F380012948C182408EC0F3C0016C
:104C500026480183408EC0F300112448C183408E52
:104C6000C0F3401121480184408EC0F380111F48D9
:104C70004183408EC0F3C0111C488183408EC0F335
:104C800000211A484184408EC0F340211748818496
:104C9000408EC0F380211548C184408EC0F3C021EE
:104CA00012480185408EC0F3003110484185408E86
:104CB000C0F340310D488185408EC0F380310B48F0
:104CC000C185408EC10B0948018600200849086053
:104CD0000849086002A800210A230A46CDE900100D
:104CE000084611F0CCFC6DE73C060020A2840020B1
:104CF00000020020400400202DE9F0412DED028B40
:104D000000BFFE48007800F0800020B3FB48007828
:104D100000F03F00C51704464FF0FF320020214647
:104D2000A1FB026705FB027204FB00253446F44830
:104D30000068241845F100052046294613F01CFEA2
:104D40009FEDF00B53EC102B13F0B6FEEF4A03C2AD
:104D50000020EA490870BDEC028BBDE8F08100B587
:104D60002DED108B89B0B0EE40BAF0EE60BAB0EE27
:104D7000418AF0EE618AB0EE429AF0EE629A8DEDD1
:104D8000069B8DED048BE24890ED000BB0EE40CA1F
:104D9000F0EE60CA90ED000BB0EE40CAF0EE60CAD3
:104DA0009DED048B53EC182BDA4890ED000B51EC81
:104DB000100B13F08FFB41EC1A0B9DED069B53EC8F
:104DC000192B51EC1A0B13F085FB41EC1F0B53EC24
:104DD0001F2B51EC1A0B13F031FC41EC1E0B53EC62
:104DE0001C2B51EC1B0B14F073F853EC1E2BCDE96C
:104DF00000019DED000B51EC100B13F05DFE41EC3A
:104E00001F0B53EC1C2B13F065FB41EC1D0B53ECFB
:104E10001E2B9FEDC10B51EC100B14F059F841EC17
:104E20001F0B53EC1A2B13F047FECDE902019DED49
:104E3000020BB84880ED000BB54880ED00DBB0EE0A
:104E40004D0AF0EE6D0A09B0BDEC108B00BD00B547
:104E50002DED108B89B0B0EE40BAF0EE60BAB0EE36
:104E6000418AF0EE618AB0EE429AF0EE629A8DEDE0
:104E7000069B8DED048BAA4890ED000BB0EE40CA66
:104E8000F0EE60CA90ED000BB0EE40CAF0EE60CAE2
:104E90009DED048B53EC182BA24890ED000B51ECC8
:104EA000100B13F017FB41EC1A0B9DED069B53EC16
:104EB000192B51EC1A0B13F00DFB41EC1F0B53ECAB
:104EC0001F2B51EC1A0B13F0B9FB41EC1E0B53ECEA
:104ED0001C2B51EC1B0B13F0FBFF53EC1E2BCDE9ED
:104EE00000019DED000B51EC100B13F0E5FD41ECC2
:104EF0001F0B53EC1C2B13F0EDFA41EC1D0B53EC84
:104F00001E2B9FED850B51EC100B13F0E1FF41ECD4
:104F10001F0B53EC1A2B13F0CFFDCDE902019DEDD1
:104F2000020B804880ED000B7D4880ED00DBB0EE89
:104F30004D0AF0EE6D0A09B0BDEC108B00BD00B556
:104F40002DED108B89B0B0EE40BAF0EE60BAB0EE45
:104F5000418AF0EE618AB0EE429AF0EE629A8DEDEF
:104F6000069B8DED048B704890ED000BB0EE40CAAF
:104F7000F0EE60CA90ED000BB0EE40CAF0EE60CAF1
:104F80009DED048B53EC182B684890ED000B51EC11
:104F9000100B13F09FFA41EC1A0B9DED069B53EC9E
:104FA000192B51EC1A0B13F095FA41EC1F0B53EC33
:104FB0001F2B51EC1A0B13F041FB41EC1E0B53EC71
:104FC0001C2B51EC1B0B13F083FF53EC1E2BCDE974
:104FD00000019DED000B51EC100B13F06DFD41EC49
:104FE0001F0B53EC1C2B13F075FA41EC1D0B53EC0B
:104FF0001E2B9FED490B51EC100B13F069FF41EC98
:105000001F0B53EC1A2B13F057FDCDE902019DED58
:10501000020B464880ED000B434880ED00DBB0EE0C
:105020004D0AF0EE6D0A09B0BDEC108B00BD10B555
:105030002DED048B01213E4805F056FD82213D48AF
:1050400008F0F5F900BF01213A4808F039FA0028C4
:10505000F9D0384808F0E8F93749086006200860B8
:1050600019E05521334808F0E2F900BF0121314829
:1050700008F026FA0028F9D02E4808F0D5F92E4974
:105080000968C1F106012D4A42F821002A4800684A
:10509000401E29490860284800680028E1D1012104
:1050A000234805F01FFD25480168406801EB0020FA
:1050B0002349086021488168C06801EB002020492D
:1050C00048601E480169406901EB00201C49886066
:1050D00008460068B0F5004F05DB08460068A0F5FB
:1050E0007F40FF38086016484068B0F5004F2BDB62
:1050F00013484068A0F57F40FF3823E0F00400200B
:10510000F404002026E8278340FAED3F3002002017
:105110004802002050020020000000000000F03F84
:105120005802002060020020680200207002002067
:105130000004024000300140280200205462002098
:105140003C620020FE494860FD488068B0F5004F91
:1051500006DBFB488068A0F57F40FF38F84988608F
:10516000012008F054FA1021F64805F0BDFC912109
:10517000F54808F05CF900BF0121F34808F0A0F9F8
:105180000028F9D0F04808F04FF9F04908600620EF
:10519000086019E05521EC4808F049F900BF0121E9
:1051A000E94808F08DF90028F9D0E74808F03CF903
:1051B000E6490968C1F10C01E54A42F82100E348DB
:1051C0000068401EE1490860E04800680028E1D11D
:1051D0001021DC4805F086FCDD488169C06901EBDF
:1051E0000020DC490860DA48016A406A01EB0020CF
:1051F000D8494860D648816AC06A01EB0020D54989
:10520000886008460068B0F5004F05DB0846006876
:10521000A0F57F40FF380860CE484068B0F5004FE9
:1052200006DBCC484068A0F57F40FF38C94948609C
:10523000C8488068B0F5004F06DBC6488068A0F516
:105240007F40FF38C34988601021BE4805F04CFC00
:105250009121BD4808F0EBF800BF0121BA4808F0E1
:105260002FF90028F9D0B84808F0DEF8B7490860EF
:105270000820086019E05521B34808F0D8F800BFAD
:105280000121B14808F01CF90028F9D0AE4808F017
:10529000CBF8AE490968C1F10E01AD4A42F82100D0
:1052A000AA480068401EA9490860A848006800286C
:1052B000E1D11021A34805F015FCA548016A406A18
:1052C00001EB0020A4490860A148816AC06A01EB93
:1052D0000020A14948609E48016B406B01EB002013
:1052E0009D49886008460068B0F5004F05DB084618
:1052F0000068A0F57F40FF38086097484068B0F527
:10530000004F06DB94484068A0F57F40FF38924983
:10531000486091488068B0F5004F06DB8E48806891
:10532000A0F57F40FF388C4988601021854805F042
:10533000DBFBA221844808F07AF800BF01218248F3
:1053400008F0BEF80028F9D07F4808F06DF87F49D2
:10535000086055217C4808F06AF800BF01217A48AE
:1053600008F0AEF80028F9D0774808F05DF87849E1
:1053700088635521744808F05AF800BF012172482B
:1053800008F09EF80028F9D06F4808F04DF87049F1
:10539000886355216C4808F04AF800BF01216A482B
:1053A00008F08EF80028F9D0674808F03DF8684901
:1053B00048631021634805F095FB6548008FC000E5
:1053C0006349496B40EA511000B2644908600846DD
:1053D0000068B0F5806F04DB08460068A0F5006047
:1053E00008605E48006813F0B0FA41EC190B9FEDBD
:1053F0005C0B53EC102B13F05FFB41EC180B9FED93
:105400005A0B53EC102B13F065F8594A03C253485A
:105410000068C0F1A800574908605748006809684B
:105420000844554908600846006844F620618842EF
:1054300002DD0846504908604F480068B0F1FF3F60
:1054400003DA4FF0FF304C4908604B4800680A21EE
:1054500090FBF1F14748006840F2A51200FB0210F2
:1054600000F6BD60454908600846006844F62061C2
:10547000884202DD0846414908604048006800282B
:1054800002DA00203D4908603C4801683C4806F0CB
:1054900038FDBDEC048B10BD2DED028B84B000BF38
:1054A00059E1FFF729FCFFF7C2FD2549086813F011
:1054B0004CFA41EC180B1FEDE83B9FED322B1FED32
:1054C000EA1BB0EE480AF0EE680AFFF748FC2F48E6
:1054D00080ED000B1A49486813F037FA41EC180BBD
:1054E0001FEDF33B9FED272B1FEDF51BB0EE480A98
:1054F000F0EE680AFFF7ABFC254880ED000B104981
:10550000886813F022FA41EC180B9FED223B9FEDC7
:105510001D2B9FED201BB0EE480AF0EE680AFFF746
:105520000EFD1E4880ED000B1D4890ED001BB0EEF7
:10553000410AF0EE610A154890ED001B32E00000D0
:105540003C620020000002400030014028020020A0
:10555000546200203062002048620020380200209F
:10556000000000000000C03F0000000000003740C5
:10557000080200203C0200204002002044020020DB
:1055800000440140000000000000284010020020FC
:1055900018020020000000000000F03F2002002060
:1055A0001862002053EC112B51EC100B12F092FFFB
:1055B00041EC180B9FED680B53EC102B13F088FC9B
:1055C000674A03C2664890ED021BB0EE410AF0EE56
:1055D000610A644890ED001B53EC112B51EC100B49
:1055E00012F078FF41EC180B9FED5F0B53EC102B82
:1055F00013F06EFC5A4AC2E90201104690ED041BFA
:10560000B0EE410AF0EE610A594890ED001B53ECF0
:10561000112B51EC100B12F05DFF41EC180B9FEDBC
:10562000550B53EC102B13F053FC4D4AC2E9040107
:10563000104690ED021BB0EE410AF0EE610A9FEDBC
:105640004F1B53EC112B51EC100B13F033FB12D208
:10565000434890ED021BB0EE410AF0EE610A9FED67
:10566000471B53EC112B51EC100B13F031FC3C4A4F
:10567000C2E9020121E03A4890ED021BB0EE410A76
:10568000F0EE610A9FED3F1B53EC112B51EC100B18
:1056900013F0D6F911D2324890ED021BB0EE410A58
:1056A000F0EE610A9FED351B53EC112B51EC100B02
:1056B00012F010FF2A4AC2E90201294890ED041BAA
:1056C000B0EE410AF0EE610A9FED2C1B53EC112B5A
:1056D00051EC100B13F0EEFA12D2214890ED041B9E
:1056E000B0EE410AF0EE610A9FED241B53EC112B42
:1056F00051EC100B13F0ECFB194AC2E9040121E054
:10570000174890ED041BB0EE410AF0EE610A9FEDE0
:105710001D1B53EC112B51EC100B13F091F911D20E
:105720000F4890ED041BB0EE410AF0EE610A9FEDC8
:10573000131B53EC112B51EC100B12F0CBFE084A4B
:10574000C2E9040103A8002102230A46CDE90010A2
:10575000084610F094FFA4E6211FF46C56FD0C409F
:105760001862002018020020EEEBC03923CA0D4059
:1057700020020020029A081B9EDE0D40000000005F
:1057800030681B4100000000000000000EB508E07A
:1057900002A8002102230A46CDE90010084610F0B5
:1057A0006EFFF5E770B52DED088B05460C462846D3
:1057B00013F0CBF8FE4A03C2204613F0C6F8FD4AA8
:1057C00003C2FD49B1F9000013F0BFF8FB4A03C260
:1057D000F949B1F9020013F0B8F8F94A03C2F649E1
:1057E000B1F9000013F0B1F841EC180BF04890ED5E
:1057F000000B53EC102B51EC180B13F091FAF14AFB
:1058000003C2ED49B1F9020013F09FF841EC180B07
:10581000E84890ED000B53EC102B51EC180B13F0F3
:105820007FFAE94A03C29FEDE90B53EC102BE548E0
:1058300090ED000B51EC100B13F03CFA05D29FEDEC
:10584000E50BE64880ED000B10E09FEDE50B53EC17
:10585000102BDC4890ED000B51EC100B13F0F0F81E
:1058600004D29FEDDC0BDD4880ED000B9FEDD70BE4
:1058700053EC102BD44890ED000B51EC100B13F0AF
:1058800019FA05D29FEDD30BD74880ED000B10E03D
:105890009FEDD30B53EC102BCB4890ED000B51EC4C
:1058A000100B13F0CDF804D29FEDCA0BCE4880ED5B
:1058B000000BC44890ED000B53EC102BC74890ED43
:1058C000000B51EC100B12F005FEC44A03C2BE4897
:1058D00090ED000B53EC102BC34890ED000B51ECF6
:1058E000100B12F0F7FDC04A03C29FEDC00B53EC42
:1058F000102BBA4890ED000B51EC100B13F0DAF9B5
:1059000004D29FEDBA0BB54880ED000B9FEDB90BAB
:1059100053EC102BB14890ED000B51EC100B13F031
:105920008FF804D29FEDB30BAC4880ED000B9FEDD8
:10593000AF0B53EC102BAC4890ED000B51EC100B5F
:1059400013F0B8F904D29FEDA90BA74880ED000B26
:105950009FEDA80B53EC102BA34890ED000B51ECDE
:10596000100B13F06DF804D29FEDA20B9E4880ED52
:10597000000BA24890ED000B53EC102B8F4890EDDC
:10598000000B51EC100B13F0A3FA41EC1A0B9FED36
:105990009C0B53EC102B13F08FF841EC180B9FED80
:1059A0009A0B53EC102B8D4890ED000B51EC100B23
:1059B00013F082F841EC1A0B9FED950B53EC102B72
:1059C000804890ED000B51EC100B13F075F841EC92
:1059D0001B0B53EC1A2B12F07DFD41EC190B53EC11
:1059E000182B13F075FA8C4A03C28C4890ED000B0B
:1059F00053EC102B724890ED000B51EC100B13F090
:105A000067FA41EC1A0B9FED7E0B53EC102B13F051
:105A100053F841EC180B9FED7C0B53EC102B7248A4
:105A200090ED000B51EC100B13F046F841EC1A0B03
:105A30009FED770B53EC102B634890ED000B51EC6E
:105A4000100B13F039F841EC1B0B53EC1A2B12F02E
:105A500041FD41EC190B53EC182B13F039FA704A45
:105A600003C29FED700B53EC102B6B4890ED000BB5
:105A700051EC100B13F01EF904D29FED6A0B66482F
:105A800080ED000B9FED690B53EC102B624890EDFD
:105A9000000B51EC100B12F0D3FF04D29FED630BFF
:105AA0005D4880ED000B9FED5F0B53EC102B5C48C5
:105AB00090ED000B51EC100B13F0FCF804D29FEDAD
:105AC000590B574880ED000B9FED580B53EC102BF2
:105AD000534890ED000B51EC100B12F0B1FF04D2C3
